{
  "address": "0x772210A44c23DC1aE7271366f8FA26b6B206c81F",
  "abi": [
    {
      "inputs": [],
      "name": "ERC1167FailedCreateClone",
      "type": "error"
    },
    {
      "anonymous": false,
      "inputs": [
        {
          "indexed": false,
          "internalType": "address",
          "name": "instance",
          "type": "address"
        }
      ],
      "name": "DAICOCustomDeployed",
      "type": "event"
    },
    {
      "inputs": [
        {
          "internalType": "address",
          "name": "implementation",
          "type": "address"
        },
        {
          "internalType": "bytes",
          "name": "data",
          "type": "bytes"
        }
      ],
      "name": "deployDAICOCustom",
      "outputs": [
        {
          "internalType": "address",
          "name": "instance",
          "type": "address"
        }
      ],
      "stateMutability": "nonpayable",
      "type": "function"
    }
  ],
  "transactionHash": "0x2bf307bc52c5c786d08445816c83b9cf4e15356a52345a2b551428eb98c416a0",
  "args": [],
  "numDeployments": 1,
  "solcInputHash": "b77ab2edff75691c4e19524ed1198b4f",
  "bytecode": "0x608060405234801561001057600080fd5b50610343806100206000396000f3fe608060405234801561001057600080fd5b506004361061002b5760003560e01c806354943e1a14610030575b600080fd5b61004361003e3660046101ef565b61005f565b6040516001600160a01b03909116815260200160405180910390f35b600061006a83610167565b60405163439fab9160e01b81529091506001600160a01b0382169063439fab91906100999085906004016102bf565b600060405180830381600087803b1580156100b357600080fd5b505af11580156100c7573d6000803e3d6000fd5b505060405163f2fde38b60e01b81523360048201526001600160a01b038416925063f2fde38b9150602401600060405180830381600087803b15801561010c57600080fd5b505af1158015610120573d6000803e3d6000fd5b50506040516001600160a01b03841681527f0a92c09a6c74f0b5fd287c218149b722a4ac697273706620fbdd884cbc4df2fe9250602001905060405180910390a192915050565b6000763d602d80600a3d3981f3363d3d373d3d3d363d730000008260601b60e81c176000526e5af43d82803e903d91602b57fd5bf38260781b17602052603760096000f090506001600160a01b0381166101d4576040516330be1a3d60e21b815260040160405180910390fd5b919050565b634e487b7160e01b600052604160045260246000fd5b6000806040838503121561020257600080fd5b82356001600160a01b038116811461021957600080fd5b9150602083013567ffffffffffffffff8082111561023657600080fd5b818501915085601f83011261024a57600080fd5b81358181111561025c5761025c6101d9565b604051601f8201601f19908116603f01168101908382118183101715610284576102846101d9565b8160405282815288602084870101111561029d57600080fd5b8260208601602083013760006020848301015280955050505050509250929050565b600060208083528351808285015260005b818110156102ec578581018301518582016040015282016102d0565b506000604082860101526040601f19601f830116850101925050509291505056fea2646970667358221220a1d8509192235f7d0ba3011502372ec152fe188a274021abb8f58680037b9c5b64736f6c63430008140033",
  "devdoc": {
    "errors": {
      "ERC1167FailedCreateClone()": [
        {
          "details": "A clone instance deployment failed."
        }
      ]
    },
    "kind": "dev",
    "methods": {},
    "version": 1
  },
  "userdoc": {
    "kind": "user",
    "methods": {},
    "version": 1
  },
  "storageLayout": {
    "storage": [],
    "types": null
  }
}