{
  "address": "0x87095d0FF1BE7f3F5ac5ab1088F783d5dAdE8B9F",
  "abi": [
    {
      "inputs": [],
      "name": "ERC1167FailedCreateClone",
      "type": "error"
    },
    {
      "anonymous": false,
      "inputs": [
        {
          "indexed": false,
          "internalType": "address",
          "name": "deployer",
          "type": "address"
        },
        {
          "indexed": false,
          "internalType": "address",
          "name": "instance",
          "type": "address"
        },
        {
          "indexed": false,
          "internalType": "address",
          "name": "implementation",
          "type": "address"
        },
        {
          "indexed": false,
          "internalType": "string",
          "name": "module",
          "type": "string"
        }
      ],
      "name": "DAICOCustomDeployed",
      "type": "event"
    },
    {
      "inputs": [
        {
          "internalType": "address",
          "name": "implementation",
          "type": "address"
        },
        {
          "internalType": "bytes",
          "name": "data",
          "type": "bytes"
        },
        {
          "internalType": "string",
          "name": "module",
          "type": "string"
        }
      ],
      "name": "deployDAICOCustom",
      "outputs": [
        {
          "internalType": "address",
          "name": "instance",
          "type": "address"
        }
      ],
      "stateMutability": "nonpayable",
      "type": "function"
    }
  ],
  "transactionHash": "0x1aa951ca06e32d53b2ffe273c9d203e7f20a6f8ede7e23d545e63b3abff927de",
  "args": [],
  "numDeployments": 4,
  "solcInputHash": "c9454018f702a067df73d9e6378824b6",
  "bytecode": "0x608060405234801561001057600080fd5b5061040c806100206000396000f3fe608060405234801561001057600080fd5b506004361061002b5760003560e01c8063a031ccb814610030575b600080fd5b61004361003e36600461023c565b61005f565b6040516001600160a01b03909116815260200160405180910390f35b600061006a8561016b565b60405163439fab9160e01b81529091506001600160a01b0382169063439fab9190610099908790600401610333565b600060405180830381600087803b1580156100b357600080fd5b505af11580156100c7573d6000803e3d6000fd5b505060405163f2fde38b60e01b81523360048201526001600160a01b038416925063f2fde38b9150602401600060405180830381600087803b15801561010c57600080fd5b505af1158015610120573d6000803e3d6000fd5b505050507f8742f36b7b3c343db82f79f2c68083b857f4ac8f0dc80b4d9fc29940738dfb13338287868660405161015b959493929190610381565b60405180910390a1949350505050565b6000763d602d80600a3d3981f3363d3d373d3d3d363d730000008260601b60e81c176000526e5af43d82803e903d91602b57fd5bf38260781b17602052603760096000f090506001600160a01b0381166101d8576040516330be1a3d60e21b815260040160405180910390fd5b919050565b634e487b7160e01b600052604160045260246000fd5b60008083601f84011261020557600080fd5b50813567ffffffffffffffff81111561021d57600080fd5b60208301915083602082850101111561023557600080fd5b9250929050565b6000806000806060858703121561025257600080fd5b84356001600160a01b038116811461026957600080fd5b9350602085013567ffffffffffffffff8082111561028657600080fd5b818701915087601f83011261029a57600080fd5b8135818111156102ac576102ac6101dd565b604051601f8201601f19908116603f011681019083821181831017156102d4576102d46101dd565b816040528281528a60208487010111156102ed57600080fd5b82602086016020830137600060208483010152809750505050604087013591508082111561031a57600080fd5b50610327878288016101f3565b95989497509550505050565b600060208083528351808285015260005b8181101561036057858101830151858201604001528201610344565b506000604082860101526040601f19601f8301168501019250505092915050565b6001600160a01b03868116825285811660208301528416604082015260806060820181905281018290526000828460a0840137600060a0848401015260a0601f19601f8501168301019050969550505050505056fea264697066735822122048f82984cfeb9cc61bce587e748aebd7ece8a64ea8c643deb798d8837302667364736f6c63430008140033",
  "devdoc": {
    "errors": {
      "ERC1167FailedCreateClone()": [
        {
          "details": "A clone instance deployment failed."
        }
      ]
    },
    "kind": "dev",
    "methods": {},
    "version": 1
  },
  "userdoc": {
    "kind": "user",
    "methods": {},
    "version": 1
  },
  "storageLayout": {
    "storage": [],
    "types": null
  }
}