{
  "address": "0xf3BD735De76638a46661935432eA78af5892FA65",
  "abi": [
    {
      "inputs": [],
      "stateMutability": "nonpayable",
      "type": "constructor"
    },
    {
      "inputs": [],
      "name": "CheckpointUnorderedInsertion",
      "type": "error"
    },
    {
      "inputs": [],
      "name": "FailedInnerCall",
      "type": "error"
    },
    {
      "inputs": [
        {
          "internalType": "address",
          "name": "voter",
          "type": "address"
        }
      ],
      "name": "GovernorAlreadyCastVote",
      "type": "error"
    },
    {
      "inputs": [
        {
          "internalType": "uint256",
          "name": "proposalId",
          "type": "uint256"
        }
      ],
      "name": "GovernorAlreadyQueuedProposal",
      "type": "error"
    },
    {
      "inputs": [],
      "name": "GovernorDisabledDeposit",
      "type": "error"
    },
    {
      "inputs": [
        {
          "internalType": "address",
          "name": "proposer",
          "type": "address"
        },
        {
          "internalType": "uint256",
          "name": "votes",
          "type": "uint256"
        },
        {
          "internalType": "uint256",
          "name": "threshold",
          "type": "uint256"
        }
      ],
      "name": "GovernorInsufficientProposerVotes",
      "type": "error"
    },
    {
      "inputs": [
        {
          "internalType": "uint256",
          "name": "targets",
          "type": "uint256"
        },
        {
          "internalType": "uint256",
          "name": "calldatas",
          "type": "uint256"
        },
        {
          "internalType": "uint256",
          "name": "values",
          "type": "uint256"
        }
      ],
      "name": "GovernorInvalidProposalLength",
      "type": "error"
    },
    {
      "inputs": [
        {
          "internalType": "uint256",
          "name": "quorumNumerator",
          "type": "uint256"
        },
        {
          "internalType": "uint256",
          "name": "quorumDenominator",
          "type": "uint256"
        }
      ],
      "name": "GovernorInvalidQuorumFraction",
      "type": "error"
    },
    {
      "inputs": [
        {
          "internalType": "address",
          "name": "voter",
          "type": "address"
        }
      ],
      "name": "GovernorInvalidSignature",
      "type": "error"
    },
    {
      "inputs": [],
      "name": "GovernorInvalidVoteType",
      "type": "error"
    },
    {
      "inputs": [
        {
          "internalType": "uint256",
          "name": "votingPeriod",
          "type": "uint256"
        }
      ],
      "name": "GovernorInvalidVotingPeriod",
      "type": "error"
    },
    {
      "inputs": [
        {
          "internalType": "uint256",
          "name": "proposalId",
          "type": "uint256"
        }
      ],
      "name": "GovernorNonexistentProposal",
      "type": "error"
    },
    {
      "inputs": [
        {
          "internalType": "uint256",
          "name": "proposalId",
          "type": "uint256"
        }
      ],
      "name": "GovernorNotQueuedProposal",
      "type": "error"
    },
    {
      "inputs": [
        {
          "internalType": "address",
          "name": "account",
          "type": "address"
        }
      ],
      "name": "GovernorOnlyExecutor",
      "type": "error"
    },
    {
      "inputs": [
        {
          "internalType": "address",
          "name": "account",
          "type": "address"
        }
      ],
      "name": "GovernorOnlyProposer",
      "type": "error"
    },
    {
      "inputs": [],
      "name": "GovernorQueueNotImplemented",
      "type": "error"
    },
    {
      "inputs": [
        {
          "internalType": "address",
          "name": "proposer",
          "type": "address"
        }
      ],
      "name": "GovernorRestrictedProposer",
      "type": "error"
    },
    {
      "inputs": [
        {
          "internalType": "uint256",
          "name": "proposalId",
          "type": "uint256"
        },
        {
          "internalType": "enum IGovernor.ProposalState",
          "name": "current",
          "type": "uint8"
        },
        {
          "internalType": "bytes32",
          "name": "expectedStates",
          "type": "bytes32"
        }
      ],
      "name": "GovernorUnexpectedProposalState",
      "type": "error"
    },
    {
      "inputs": [
        {
          "internalType": "address",
          "name": "account",
          "type": "address"
        },
        {
          "internalType": "uint256",
          "name": "currentNonce",
          "type": "uint256"
        }
      ],
      "name": "InvalidAccountNonce",
      "type": "error"
    },
    {
      "inputs": [],
      "name": "InvalidInitialization",
      "type": "error"
    },
    {
      "inputs": [],
      "name": "NotInitializing",
      "type": "error"
    },
    {
      "inputs": [
        {
          "internalType": "address",
          "name": "owner",
          "type": "address"
        }
      ],
      "name": "OwnableInvalidOwner",
      "type": "error"
    },
    {
      "inputs": [
        {
          "internalType": "address",
          "name": "account",
          "type": "address"
        }
      ],
      "name": "OwnableUnauthorizedAccount",
      "type": "error"
    },
    {
      "inputs": [],
      "name": "QueueEmpty",
      "type": "error"
    },
    {
      "inputs": [],
      "name": "QueueFull",
      "type": "error"
    },
    {
      "inputs": [
        {
          "internalType": "uint8",
          "name": "bits",
          "type": "uint8"
        },
        {
          "internalType": "uint256",
          "name": "value",
          "type": "uint256"
        }
      ],
      "name": "SafeCastOverflowedUintDowncast",
      "type": "error"
    },
    {
      "anonymous": false,
      "inputs": [],
      "name": "EIP712DomainChanged",
      "type": "event"
    },
    {
      "anonymous": false,
      "inputs": [
        {
          "indexed": false,
          "internalType": "uint64",
          "name": "version",
          "type": "uint64"
        }
      ],
      "name": "Initialized",
      "type": "event"
    },
    {
      "anonymous": false,
      "inputs": [
        {
          "indexed": true,
          "internalType": "address",
          "name": "previousOwner",
          "type": "address"
        },
        {
          "indexed": true,
          "internalType": "address",
          "name": "newOwner",
          "type": "address"
        }
      ],
      "name": "OwnershipTransferred",
      "type": "event"
    },
    {
      "anonymous": false,
      "inputs": [
        {
          "indexed": false,
          "internalType": "uint256",
          "name": "proposalId",
          "type": "uint256"
        }
      ],
      "name": "ProposalCanceled",
      "type": "event"
    },
    {
      "anonymous": false,
      "inputs": [
        {
          "indexed": false,
          "internalType": "uint256",
          "name": "proposalId",
          "type": "uint256"
        },
        {
          "indexed": false,
          "internalType": "address",
          "name": "proposer",
          "type": "address"
        },
        {
          "indexed": false,
          "internalType": "address[]",
          "name": "targets",
          "type": "address[]"
        },
        {
          "indexed": false,
          "internalType": "uint256[]",
          "name": "values",
          "type": "uint256[]"
        },
        {
          "indexed": false,
          "internalType": "string[]",
          "name": "signatures",
          "type": "string[]"
        },
        {
          "indexed": false,
          "internalType": "bytes[]",
          "name": "calldatas",
          "type": "bytes[]"
        },
        {
          "indexed": false,
          "internalType": "uint256",
          "name": "voteStart",
          "type": "uint256"
        },
        {
          "indexed": false,
          "internalType": "uint256",
          "name": "voteEnd",
          "type": "uint256"
        },
        {
          "indexed": false,
          "internalType": "string",
          "name": "description",
          "type": "string"
        }
      ],
      "name": "ProposalCreated",
      "type": "event"
    },
    {
      "anonymous": false,
      "inputs": [
        {
          "indexed": false,
          "internalType": "uint256",
          "name": "proposalId",
          "type": "uint256"
        }
      ],
      "name": "ProposalExecuted",
      "type": "event"
    },
    {
      "anonymous": false,
      "inputs": [
        {
          "indexed": false,
          "internalType": "uint256",
          "name": "proposalId",
          "type": "uint256"
        },
        {
          "indexed": false,
          "internalType": "uint256",
          "name": "etaSeconds",
          "type": "uint256"
        }
      ],
      "name": "ProposalQueued",
      "type": "event"
    },
    {
      "anonymous": false,
      "inputs": [
        {
          "indexed": false,
          "internalType": "uint256",
          "name": "oldQuorumNumerator",
          "type": "uint256"
        },
        {
          "indexed": false,
          "internalType": "uint256",
          "name": "newQuorumNumerator",
          "type": "uint256"
        }
      ],
      "name": "QuorumNumeratorUpdated",
      "type": "event"
    },
    {
      "anonymous": false,
      "inputs": [
        {
          "indexed": true,
          "internalType": "address",
          "name": "voter",
          "type": "address"
        },
        {
          "indexed": false,
          "internalType": "uint256",
          "name": "proposalId",
          "type": "uint256"
        },
        {
          "indexed": false,
          "internalType": "uint8",
          "name": "support",
          "type": "uint8"
        },
        {
          "indexed": false,
          "internalType": "uint256",
          "name": "weight",
          "type": "uint256"
        },
        {
          "indexed": false,
          "internalType": "string",
          "name": "reason",
          "type": "string"
        }
      ],
      "name": "VoteCast",
      "type": "event"
    },
    {
      "anonymous": false,
      "inputs": [
        {
          "indexed": true,
          "internalType": "address",
          "name": "voter",
          "type": "address"
        },
        {
          "indexed": false,
          "internalType": "uint256",
          "name": "proposalId",
          "type": "uint256"
        },
        {
          "indexed": false,
          "internalType": "uint8",
          "name": "support",
          "type": "uint8"
        },
        {
          "indexed": false,
          "internalType": "uint256",
          "name": "weight",
          "type": "uint256"
        },
        {
          "indexed": false,
          "internalType": "string",
          "name": "reason",
          "type": "string"
        },
        {
          "indexed": false,
          "internalType": "bytes",
          "name": "params",
          "type": "bytes"
        }
      ],
      "name": "VoteCastWithParams",
      "type": "event"
    },
    {
      "inputs": [],
      "name": "BALLOT_TYPEHASH",
      "outputs": [
        {
          "internalType": "bytes32",
          "name": "",
          "type": "bytes32"
        }
      ],
      "stateMutability": "view",
      "type": "function"
    },
    {
      "inputs": [],
      "name": "CLOCK_MODE",
      "outputs": [
        {
          "internalType": "string",
          "name": "",
          "type": "string"
        }
      ],
      "stateMutability": "view",
      "type": "function"
    },
    {
      "inputs": [],
      "name": "COUNTING_MODE",
      "outputs": [
        {
          "internalType": "string",
          "name": "",
          "type": "string"
        }
      ],
      "stateMutability": "pure",
      "type": "function"
    },
    {
      "inputs": [],
      "name": "EXTENDED_BALLOT_TYPEHASH",
      "outputs": [
        {
          "internalType": "bytes32",
          "name": "",
          "type": "bytes32"
        }
      ],
      "stateMutability": "view",
      "type": "function"
    },
    {
      "inputs": [
        {
          "internalType": "address[]",
          "name": "targets",
          "type": "address[]"
        },
        {
          "internalType": "uint256[]",
          "name": "values",
          "type": "uint256[]"
        },
        {
          "internalType": "bytes[]",
          "name": "calldatas",
          "type": "bytes[]"
        },
        {
          "internalType": "bytes32",
          "name": "descriptionHash",
          "type": "bytes32"
        }
      ],
      "name": "cancel",
      "outputs": [
        {
          "internalType": "uint256",
          "name": "",
          "type": "uint256"
        }
      ],
      "stateMutability": "nonpayable",
      "type": "function"
    },
    {
      "inputs": [
        {
          "internalType": "uint256",
          "name": "proposalId",
          "type": "uint256"
        },
        {
          "internalType": "uint8",
          "name": "support",
          "type": "uint8"
        }
      ],
      "name": "castVote",
      "outputs": [
        {
          "internalType": "uint256",
          "name": "",
          "type": "uint256"
        }
      ],
      "stateMutability": "nonpayable",
      "type": "function"
    },
    {
      "inputs": [
        {
          "internalType": "uint256",
          "name": "proposalId",
          "type": "uint256"
        },
        {
          "internalType": "uint8",
          "name": "support",
          "type": "uint8"
        },
        {
          "internalType": "address",
          "name": "voter",
          "type": "address"
        },
        {
          "internalType": "bytes",
          "name": "signature",
          "type": "bytes"
        }
      ],
      "name": "castVoteBySig",
      "outputs": [
        {
          "internalType": "uint256",
          "name": "",
          "type": "uint256"
        }
      ],
      "stateMutability": "nonpayable",
      "type": "function"
    },
    {
      "inputs": [
        {
          "internalType": "uint256",
          "name": "proposalId",
          "type": "uint256"
        },
        {
          "internalType": "uint8",
          "name": "support",
          "type": "uint8"
        },
        {
          "internalType": "string",
          "name": "reason",
          "type": "string"
        }
      ],
      "name": "castVoteWithReason",
      "outputs": [
        {
          "internalType": "uint256",
          "name": "",
          "type": "uint256"
        }
      ],
      "stateMutability": "nonpayable",
      "type": "function"
    },
    {
      "inputs": [
        {
          "internalType": "uint256",
          "name": "proposalId",
          "type": "uint256"
        },
        {
          "internalType": "uint8",
          "name": "support",
          "type": "uint8"
        },
        {
          "internalType": "string",
          "name": "reason",
          "type": "string"
        },
        {
          "internalType": "bytes",
          "name": "params",
          "type": "bytes"
        }
      ],
      "name": "castVoteWithReasonAndParams",
      "outputs": [
        {
          "internalType": "uint256",
          "name": "",
          "type": "uint256"
        }
      ],
      "stateMutability": "nonpayable",
      "type": "function"
    },
    {
      "inputs": [
        {
          "internalType": "uint256",
          "name": "proposalId",
          "type": "uint256"
        },
        {
          "internalType": "uint8",
          "name": "support",
          "type": "uint8"
        },
        {
          "internalType": "address",
          "name": "voter",
          "type": "address"
        },
        {
          "internalType": "string",
          "name": "reason",
          "type": "string"
        },
        {
          "internalType": "bytes",
          "name": "params",
          "type": "bytes"
        },
        {
          "internalType": "bytes",
          "name": "signature",
          "type": "bytes"
        }
      ],
      "name": "castVoteWithReasonAndParamsBySig",
      "outputs": [
        {
          "internalType": "uint256",
          "name": "",
          "type": "uint256"
        }
      ],
      "stateMutability": "nonpayable",
      "type": "function"
    },
    {
      "inputs": [],
      "name": "clock",
      "outputs": [
        {
          "internalType": "uint48",
          "name": "",
          "type": "uint48"
        }
      ],
      "stateMutability": "view",
      "type": "function"
    },
    {
      "inputs": [],
      "name": "eip712Domain",
      "outputs": [
        {
          "internalType": "bytes1",
          "name": "fields",
          "type": "bytes1"
        },
        {
          "internalType": "string",
          "name": "name",
          "type": "string"
        },
        {
          "internalType": "string",
          "name": "version",
          "type": "string"
        },
        {
          "internalType": "uint256",
          "name": "chainId",
          "type": "uint256"
        },
        {
          "internalType": "address",
          "name": "verifyingContract",
          "type": "address"
        },
        {
          "internalType": "bytes32",
          "name": "salt",
          "type": "bytes32"
        },
        {
          "internalType": "uint256[]",
          "name": "extensions",
          "type": "uint256[]"
        }
      ],
      "stateMutability": "view",
      "type": "function"
    },
    {
      "inputs": [
        {
          "internalType": "address[]",
          "name": "targets",
          "type": "address[]"
        },
        {
          "internalType": "uint256[]",
          "name": "values",
          "type": "uint256[]"
        },
        {
          "internalType": "bytes[]",
          "name": "calldatas",
          "type": "bytes[]"
        },
        {
          "internalType": "bytes32",
          "name": "descriptionHash",
          "type": "bytes32"
        }
      ],
      "name": "execute",
      "outputs": [
        {
          "internalType": "uint256",
          "name": "",
          "type": "uint256"
        }
      ],
      "stateMutability": "payable",
      "type": "function"
    },
    {
      "inputs": [
        {
          "internalType": "address",
          "name": "account",
          "type": "address"
        },
        {
          "internalType": "uint256",
          "name": "timepoint",
          "type": "uint256"
        }
      ],
      "name": "getVotes",
      "outputs": [
        {
          "internalType": "uint256",
          "name": "",
          "type": "uint256"
        }
      ],
      "stateMutability": "view",
      "type": "function"
    },
    {
      "inputs": [
        {
          "internalType": "address",
          "name": "account",
          "type": "address"
        },
        {
          "internalType": "uint256",
          "name": "timepoint",
          "type": "uint256"
        },
        {
          "internalType": "bytes",
          "name": "params",
          "type": "bytes"
        }
      ],
      "name": "getVotesWithParams",
      "outputs": [
        {
          "internalType": "uint256",
          "name": "",
          "type": "uint256"
        }
      ],
      "stateMutability": "view",
      "type": "function"
    },
    {
      "inputs": [
        {
          "internalType": "uint256",
          "name": "proposalId",
          "type": "uint256"
        },
        {
          "internalType": "address",
          "name": "account",
          "type": "address"
        }
      ],
      "name": "hasVoted",
      "outputs": [
        {
          "internalType": "bool",
          "name": "",
          "type": "bool"
        }
      ],
      "stateMutability": "view",
      "type": "function"
    },
    {
      "inputs": [
        {
          "internalType": "address[]",
          "name": "targets",
          "type": "address[]"
        },
        {
          "internalType": "uint256[]",
          "name": "values",
          "type": "uint256[]"
        },
        {
          "internalType": "bytes[]",
          "name": "calldatas",
          "type": "bytes[]"
        },
        {
          "internalType": "bytes32",
          "name": "descriptionHash",
          "type": "bytes32"
        }
      ],
      "name": "hashProposal",
      "outputs": [
        {
          "internalType": "uint256",
          "name": "",
          "type": "uint256"
        }
      ],
      "stateMutability": "pure",
      "type": "function"
    },
    {
      "inputs": [
        {
          "internalType": "bytes",
          "name": "data",
          "type": "bytes"
        }
      ],
      "name": "initialize",
      "outputs": [],
      "stateMutability": "nonpayable",
      "type": "function"
    },
    {
      "inputs": [],
      "name": "name",
      "outputs": [
        {
          "internalType": "string",
          "name": "",
          "type": "string"
        }
      ],
      "stateMutability": "view",
      "type": "function"
    },
    {
      "inputs": [
        {
          "internalType": "address",
          "name": "owner",
          "type": "address"
        }
      ],
      "name": "nonces",
      "outputs": [
        {
          "internalType": "uint256",
          "name": "",
          "type": "uint256"
        }
      ],
      "stateMutability": "view",
      "type": "function"
    },
    {
      "inputs": [
        {
          "internalType": "address",
          "name": "",
          "type": "address"
        },
        {
          "internalType": "address",
          "name": "",
          "type": "address"
        },
        {
          "internalType": "uint256[]",
          "name": "",
          "type": "uint256[]"
        },
        {
          "internalType": "uint256[]",
          "name": "",
          "type": "uint256[]"
        },
        {
          "internalType": "bytes",
          "name": "",
          "type": "bytes"
        }
      ],
      "name": "onERC1155BatchReceived",
      "outputs": [
        {
          "internalType": "bytes4",
          "name": "",
          "type": "bytes4"
        }
      ],
      "stateMutability": "nonpayable",
      "type": "function"
    },
    {
      "inputs": [
        {
          "internalType": "address",
          "name": "",
          "type": "address"
        },
        {
          "internalType": "address",
          "name": "",
          "type": "address"
        },
        {
          "internalType": "uint256",
          "name": "",
          "type": "uint256"
        },
        {
          "internalType": "uint256",
          "name": "",
          "type": "uint256"
        },
        {
          "internalType": "bytes",
          "name": "",
          "type": "bytes"
        }
      ],
      "name": "onERC1155Received",
      "outputs": [
        {
          "internalType": "bytes4",
          "name": "",
          "type": "bytes4"
        }
      ],
      "stateMutability": "nonpayable",
      "type": "function"
    },
    {
      "inputs": [
        {
          "internalType": "address",
          "name": "",
          "type": "address"
        },
        {
          "internalType": "address",
          "name": "",
          "type": "address"
        },
        {
          "internalType": "uint256",
          "name": "",
          "type": "uint256"
        },
        {
          "internalType": "bytes",
          "name": "",
          "type": "bytes"
        }
      ],
      "name": "onERC721Received",
      "outputs": [
        {
          "internalType": "bytes4",
          "name": "",
          "type": "bytes4"
        }
      ],
      "stateMutability": "nonpayable",
      "type": "function"
    },
    {
      "inputs": [],
      "name": "owner",
      "outputs": [
        {
          "internalType": "address",
          "name": "",
          "type": "address"
        }
      ],
      "stateMutability": "view",
      "type": "function"
    },
    {
      "inputs": [
        {
          "internalType": "uint256",
          "name": "proposalId",
          "type": "uint256"
        }
      ],
      "name": "proposalDeadline",
      "outputs": [
        {
          "internalType": "uint256",
          "name": "",
          "type": "uint256"
        }
      ],
      "stateMutability": "view",
      "type": "function"
    },
    {
      "inputs": [
        {
          "internalType": "uint256",
          "name": "proposalId",
          "type": "uint256"
        }
      ],
      "name": "proposalEta",
      "outputs": [
        {
          "internalType": "uint256",
          "name": "",
          "type": "uint256"
        }
      ],
      "stateMutability": "view",
      "type": "function"
    },
    {
      "inputs": [
        {
          "internalType": "uint256",
          "name": "",
          "type": "uint256"
        }
      ],
      "name": "proposalNeedsQueuing",
      "outputs": [
        {
          "internalType": "bool",
          "name": "",
          "type": "bool"
        }
      ],
      "stateMutability": "view",
      "type": "function"
    },
    {
      "inputs": [
        {
          "internalType": "uint256",
          "name": "proposalId",
          "type": "uint256"
        }
      ],
      "name": "proposalProposer",
      "outputs": [
        {
          "internalType": "address",
          "name": "",
          "type": "address"
        }
      ],
      "stateMutability": "view",
      "type": "function"
    },
    {
      "inputs": [
        {
          "internalType": "uint256",
          "name": "proposalId",
          "type": "uint256"
        }
      ],
      "name": "proposalSnapshot",
      "outputs": [
        {
          "internalType": "uint256",
          "name": "",
          "type": "uint256"
        }
      ],
      "stateMutability": "view",
      "type": "function"
    },
    {
      "inputs": [],
      "name": "proposalThreshold",
      "outputs": [
        {
          "internalType": "uint256",
          "name": "",
          "type": "uint256"
        }
      ],
      "stateMutability": "view",
      "type": "function"
    },
    {
      "inputs": [
        {
          "internalType": "uint256",
          "name": "proposalId",
          "type": "uint256"
        }
      ],
      "name": "proposalVotes",
      "outputs": [
        {
          "internalType": "uint256",
          "name": "againstVotes",
          "type": "uint256"
        },
        {
          "internalType": "uint256",
          "name": "forVotes",
          "type": "uint256"
        },
        {
          "internalType": "uint256",
          "name": "abstainVotes",
          "type": "uint256"
        }
      ],
      "stateMutability": "view",
      "type": "function"
    },
    {
      "inputs": [
        {
          "internalType": "address[]",
          "name": "targets",
          "type": "address[]"
        },
        {
          "internalType": "uint256[]",
          "name": "values",
          "type": "uint256[]"
        },
        {
          "internalType": "bytes[]",
          "name": "calldatas",
          "type": "bytes[]"
        },
        {
          "internalType": "string",
          "name": "description",
          "type": "string"
        }
      ],
      "name": "propose",
      "outputs": [
        {
          "internalType": "uint256",
          "name": "",
          "type": "uint256"
        }
      ],
      "stateMutability": "nonpayable",
      "type": "function"
    },
    {
      "inputs": [
        {
          "internalType": "address[]",
          "name": "targets",
          "type": "address[]"
        },
        {
          "internalType": "uint256[]",
          "name": "values",
          "type": "uint256[]"
        },
        {
          "internalType": "bytes[]",
          "name": "calldatas",
          "type": "bytes[]"
        },
        {
          "internalType": "bytes32",
          "name": "descriptionHash",
          "type": "bytes32"
        }
      ],
      "name": "queue",
      "outputs": [
        {
          "internalType": "uint256",
          "name": "",
          "type": "uint256"
        }
      ],
      "stateMutability": "nonpayable",
      "type": "function"
    },
    {
      "inputs": [
        {
          "internalType": "uint256",
          "name": "timepoint",
          "type": "uint256"
        }
      ],
      "name": "quorum",
      "outputs": [
        {
          "internalType": "uint256",
          "name": "",
          "type": "uint256"
        }
      ],
      "stateMutability": "view",
      "type": "function"
    },
    {
      "inputs": [],
      "name": "quorumDenominator",
      "outputs": [
        {
          "internalType": "uint256",
          "name": "",
          "type": "uint256"
        }
      ],
      "stateMutability": "view",
      "type": "function"
    },
    {
      "inputs": [
        {
          "internalType": "uint256",
          "name": "timepoint",
          "type": "uint256"
        }
      ],
      "name": "quorumNumerator",
      "outputs": [
        {
          "internalType": "uint256",
          "name": "",
          "type": "uint256"
        }
      ],
      "stateMutability": "view",
      "type": "function"
    },
    {
      "inputs": [],
      "name": "quorumNumerator",
      "outputs": [
        {
          "internalType": "uint256",
          "name": "",
          "type": "uint256"
        }
      ],
      "stateMutability": "view",
      "type": "function"
    },
    {
      "inputs": [
        {
          "internalType": "address",
          "name": "target",
          "type": "address"
        },
        {
          "internalType": "uint256",
          "name": "value",
          "type": "uint256"
        },
        {
          "internalType": "bytes",
          "name": "data",
          "type": "bytes"
        }
      ],
      "name": "relay",
      "outputs": [],
      "stateMutability": "payable",
      "type": "function"
    },
    {
      "inputs": [],
      "name": "renounceOwnership",
      "outputs": [],
      "stateMutability": "nonpayable",
      "type": "function"
    },
    {
      "inputs": [
        {
          "internalType": "uint256",
          "name": "proposalId",
          "type": "uint256"
        }
      ],
      "name": "state",
      "outputs": [
        {
          "internalType": "enum IGovernor.ProposalState",
          "name": "",
          "type": "uint8"
        }
      ],
      "stateMutability": "view",
      "type": "function"
    },
    {
      "inputs": [
        {
          "internalType": "bytes4",
          "name": "interfaceId",
          "type": "bytes4"
        }
      ],
      "name": "supportsInterface",
      "outputs": [
        {
          "internalType": "bool",
          "name": "",
          "type": "bool"
        }
      ],
      "stateMutability": "view",
      "type": "function"
    },
    {
      "inputs": [],
      "name": "token",
      "outputs": [
        {
          "internalType": "contract IERC5805",
          "name": "",
          "type": "address"
        }
      ],
      "stateMutability": "view",
      "type": "function"
    },
    {
      "inputs": [
        {
          "internalType": "address",
          "name": "newOwner",
          "type": "address"
        }
      ],
      "name": "transferOwnership",
      "outputs": [],
      "stateMutability": "nonpayable",
      "type": "function"
    },
    {
      "inputs": [
        {
          "internalType": "uint256",
          "name": "newQuorumNumerator",
          "type": "uint256"
        }
      ],
      "name": "updateQuorumNumerator",
      "outputs": [],
      "stateMutability": "nonpayable",
      "type": "function"
    },
    {
      "inputs": [],
      "name": "version",
      "outputs": [
        {
          "internalType": "string",
          "name": "",
          "type": "string"
        }
      ],
      "stateMutability": "view",
      "type": "function"
    },
    {
      "inputs": [],
      "name": "version_ethsign",
      "outputs": [
        {
          "internalType": "string",
          "name": "",
          "type": "string"
        }
      ],
      "stateMutability": "pure",
      "type": "function"
    },
    {
      "inputs": [],
      "name": "votingDelay",
      "outputs": [
        {
          "internalType": "uint256",
          "name": "",
          "type": "uint256"
        }
      ],
      "stateMutability": "view",
      "type": "function"
    },
    {
      "inputs": [],
      "name": "votingPeriod",
      "outputs": [
        {
          "internalType": "uint256",
          "name": "",
          "type": "uint256"
        }
      ],
      "stateMutability": "view",
      "type": "function"
    },
    {
      "stateMutability": "payable",
      "type": "receive"
    }
  ],
  "transactionHash": "0x0d2d7dd6633a4e85a7b620c66e748936a5438df4d7aa59380b2143ca4c6e2869",
  "args": [],
  "numDeployments": 1,
  "solcInputHash": "d1602d000bad8257401e1a3bdc53e987",
  "bytecode": "0x60806040523480156200001157600080fd5b506200001c62000022565b620000d6565b7ff0c57e16840df040f15088dc2f81fe391c3923bec73e23a9662efc9c229c6a00805468010000000000000000900460ff1615620000735760405163f92ee8a960e01b815260040160405180910390fd5b80546001600160401b0390811614620000d35780546001600160401b0319166001600160401b0390811782556040519081527fc7f505b2f371ae2175ee4913f4499e1f2633a7b5936321eed1cdaeb6115181d29060200160405180910390a15b50565b6141ad80620000e66000396000f3fe6080604052600436106102975760003560e01c80637b3c71d31161015a578063b58131b0116100c1578063deaaa7cc1161007a578063deaaa7cc14610922578063eb9019d414610956578063f23a6e6114610976578063f2fde38b146109a2578063f8ce560a146109c2578063fc0c546a146109e257600080fd5b8063b58131b014610848578063bc197c811461085d578063c01f9e3714610889578063c28bc2fa146108a9578063c59057e4146108bc578063dd4e2ba5146108dc57600080fd5b806391ddadf41161011357806391ddadf41461076d57806397c3d334146107995780639a802a6d146107ad578063a7713a70146107cd578063a9a95294146107e2578063ab58fb8e1461080357600080fd5b80637b3c71d31461067b5780637d5e81e21461069b5780637ecebe00146106bb57806384b0196e146107105780638da5cb5b146107385780638ff262e31461074d57600080fd5b806343859632116101fe57806356781388116101b757806356781388146105b85780635b8d0e0d146105d85780635f398a14146105f857806360c4247f14610618578063679100b314610638578063715018a61461066657600080fd5b80634385963214610480578063439fab91146104d7578063452115d6146104f75780634bf5d7e914610517578063544ffc9c1461052c57806354fd4d501461058e57600080fd5b8063160cbed711610250578063160cbed7146103b75780632656227d146103d75780632d63f693146103ea5780632fe3e2611461040a5780633932abb11461043e5780633e4f49e61461045357600080fd5b806301ffc9a7146102a557806302a251a3146102da57806306f3f9e6146102f957806306fdde0314610319578063143489d01461033b578063150b7a021461037357600080fd5b366102a057005b005b600080fd5b3480156102b157600080fd5b506102c56102c0366004612fd0565b6109f7565b60405190151581526020015b60405180910390f35b3480156102e657600080fd5b506001545b6040519081526020016102d1565b34801561030557600080fd5b5061029e610314366004612ffa565b610a49565b34801561032557600080fd5b5061032e610a5d565b6040516102d19190613063565b34801561034757600080fd5b5061035b610356366004612ffa565b610b01565b6040516001600160a01b0390911681526020016102d1565b34801561037f57600080fd5b5061039e61038e366004613156565b630a85bd0160e11b949350505050565b6040516001600160e01b031990911681526020016102d1565b3480156103c357600080fd5b506102eb6103d2366004613322565b610b29565b6102eb6103e5366004613322565b610b83565b3480156103f657600080fd5b506102eb610405366004612ffa565b610cca565b34801561041657600080fd5b506102eb7f3e83946653575f9a39005e1545185629e92736b7528ab20ca3816f315424a81181565b34801561044a57600080fd5b506000546102eb565b34801561045f57600080fd5b5061047361046e366004612ffa565b610cf8565b6040516102d191906133e9565b34801561048c57600080fd5b506102c561049b3660046133f7565b6000918252600080516020614138833981519152602090815260408084206001600160a01b039390931684526003909201905290205460ff1690565b3480156104e357600080fd5b5061029e6104f2366004613427565b610e76565b34801561050357600080fd5b506102eb610512366004613322565b611045565b34801561052357600080fd5b5061032e6110b7565b34801561053857600080fd5b50610573610547366004612ffa565b600090815260008051602061413883398151915260205260409020805460018201546002909201549092565b604080519384526020840192909252908201526060016102d1565b34801561059a57600080fd5b506040805180820190915260018152603160f81b602082015261032e565b3480156105c457600080fd5b506102eb6105d336600461346c565b611160565b3480156105e457600080fd5b506102eb6105f33660046134e0565b611189565b34801561060457600080fd5b506102eb61061336600461359a565b6112ca565b34801561062457600080fd5b506102eb610633366004612ffa565b61131f565b34801561064457600080fd5b50604080518082019091526005815264302e302e3160d81b602082015261032e565b34801561067257600080fd5b5061029e6113ce565b34801561068757600080fd5b506102eb61069636600461361d565b6113e2565b3480156106a757600080fd5b506102eb6106b6366004613676565b61142a565b3480156106c757600080fd5b506102eb6106d636600461372a565b6001600160a01b031660009081527f5ab42ced628888259c08ac98db1eb0cf702fc1501344311d8b100cd1bfe4bb00602052604090205490565b34801561071c57600080fd5b506107256114e8565b6040516102d19796959493929190613782565b34801561074457600080fd5b5061035b611594565b34801561075957600080fd5b506102eb6107683660046137f2565b6115c9565b34801561077957600080fd5b5061078261167d565b60405165ffffffffffff90911681526020016102d1565b3480156107a557600080fd5b5060646102eb565b3480156107b957600080fd5b506102eb6107c8366004613843565b6116f1565b3480156107d957600080fd5b506102eb6116fe565b3480156107ee57600080fd5b506102c56107fd366004612ffa565b50600090565b34801561080f57600080fd5b506102eb61081e366004612ffa565b60009081526000805160206140f8833981519152602052604090206001015465ffffffffffff1690565b34801561085457600080fd5b506002546102eb565b34801561086957600080fd5b5061039e61087836600461389b565b63bc197c8160e01b95945050505050565b34801561089557600080fd5b506102eb6108a4366004612ffa565b611739565b61029e6108b736600461392e565b61179a565b3480156108c857600080fd5b506102eb6108d7366004613322565b61181a565b3480156108e857600080fd5b506040805180820190915260208082527f737570706f72743d627261766f2671756f72756d3d666f722c6162737461696e9082015261032e565b34801561092e57600080fd5b506102eb7ff2aad550cf55f045cb27e9c559f9889fdfb6e6cdaa032301d6ea397784ae51d781565b34801561096257600080fd5b506102eb610971366004613971565b611854565b34801561098257600080fd5b5061039e61099136600461399d565b63f23a6e6160e01b95945050505050565b3480156109ae57600080fd5b5061029e6109bd36600461372a565b61187c565b3480156109ce57600080fd5b506102eb6109dd366004612ffa565b611885565b3480156109ee57600080fd5b5061035b61191c565b60006001600160e01b031982166332a2ad4360e11b1480610a2857506001600160e01b03198216630271189760e51b145b80610a4357506301ffc9a760e01b6001600160e01b03198316145b92915050565b610a51611945565b610a5a8161198c565b50565b6000805160206141588339815191528054606091908190610a7d90613a05565b80601f0160208091040260200160405190810160405280929190818152602001828054610aa990613a05565b8015610af65780601f10610acb57610100808354040283529160200191610af6565b820191906000526020600020905b815481529060010190602001808311610ad957829003601f168201915b505050505091505090565b60009081526000805160206140f883398151915260205260409020546001600160a01b031690565b600060008051602061415883398151915281610b478787878761181a565b9050610b5c81610b576004611a43565b611a66565b506000604051634844252360e11b815260040160405180910390fd5b509695505050505050565b600060008051602061415883398151915281610ba18787878761181a565b9050610bc181610bb16005611a43565b610bbb6004611a43565b17611a66565b5060008181526001830160205260409020805460ff60f01b1916600160f01b17905530610beb3090565b6001600160a01b031614610c7f5760005b8751811015610c7d57306001600160a01b0316888281518110610c2157610c21613a3f565b60200260200101516001600160a01b031603610c6d57610c6d868281518110610c4c57610c4c613a3f565b60200260200101518051906020012084600201611aa590919063ffffffff16565b610c7681613a6b565b9050610bfc565b505b610c8c8188888888611b16565b6040518181527f712ae1383f79ac853f8d882153778e0260ef8f03b504e2866e0593e04d2b291f906020015b60405180910390a19695505050505050565b60009081526000805160206140f88339815191526020526040902054600160a01b900465ffffffffffff1690565b60008181526000805160206140f8833981519152602052604081208054600080516020614158833981519152919060ff600160f01b8204811691600160f81b9004168115610d4c5750600795945050505050565b8015610d5e5750600295945050505050565b6000610d6987610cca565b905080600003610d9457604051636ad0607560e01b8152600481018890526024015b60405180910390fd5b6000610d9e61167d565b65ffffffffffff169050808210610dbd57506000979650505050505050565b6000610dc889611739565b9050818110610de05750600198975050505050505050565b610de989611bee565b1580610e165750600089815260008051602061413883398151915260205260409020805460019091015411155b15610e2a5750600398975050505050505050565b60008981526000805160206140f8833981519152602052604090206001015465ffffffffffff16600003610e675750600498975050505050505050565b50600598975050505050505050565b7ff0c57e16840df040f15088dc2f81fe391c3923bec73e23a9662efc9c229c6a008054600160401b810460ff1615906001600160401b0316600081158015610ebb5750825b90506000826001600160401b03166001148015610ed75750303b155b905081158015610ee5575080155b15610f035760405163f92ee8a960e01b815260040160405180910390fd5b845467ffffffffffffffff191660011785558315610f2d57845460ff60401b1916600160401b1785555b6000806000806000808b806020019051810190610f4a9190613ac9565b6040516309ab24eb60e41b815260006004820152959b509399509197509550935091506001600160a01b03861690639ab24eb090602401602060405180830381865afa158015610f9e573d6000803e3d6000fd5b505050506040513d601f19601f82011682018060405250810190610fc29190613b3e565b50610fcc86611c35565b610fd585611c6d565b610fde84611cb6565b610fe733611cbe565b60009290925560015560025550508415905061103d57845460ff60401b19168555604051600181527fc7f505b2f371ae2175ee4913f4499e1f2633a7b5936321eed1cdaeb6115181d29060200160405180910390a15b505050505050565b6000806110548686868661181a565b905061106481610b576000611a43565b5061106e81610b01565b6001600160a01b0316336001600160a01b0316146110a15760405163233d98e360e01b8152336004820152602401610d8b565b6110ad86868686611cf9565b9695505050505050565b60606110c161191c565b6001600160a01b0316634bf5d7e96040518163ffffffff1660e01b8152600401600060405180830381865afa92505050801561111f57506040513d6000823e601f3d908101601f1916820160405261111c9190810190613b57565b60015b61115b575060408051808201909152601d81527f6d6f64653d626c6f636b6e756d6265722666726f6d3d64656661756c74000000602082015290565b919050565b60008033905061118184828560405180602001604052806000815250611dbb565b949350505050565b60008061124e876112487f3e83946653575f9a39005e1545185629e92736b7528ab20ca3816f315424a8118c8c8c6111c08e611de7565b8d8d6040516111d0929190613b8b565b60405180910390208c8051906020012060405160200161122d9796959493929190968752602087019590955260ff9390931660408601526001600160a01b03919091166060850152608084015260a083015260c082015260e00190565b60405160208183030381529060405280519060200120611e29565b85611e56565b905080611279576040516394ab6c0760e01b81526001600160a01b0388166004820152602401610d8b565b6112bd89888a89898080601f0160208091040260200160405190810160405280939291908181526020018383808284376000920191909152508b9250611eae915050565b9998505050505050505050565b60008033905061131487828888888080601f0160208091040260200160405190810160405280939291908181526020018383808284376000920191909152508a9250611eae915050565b979650505050505050565b7fe770710421fd2cad75ad828c61aa98f2d77d423a440b67872d0f65554148e0008054600091908282611353600184613b9b565b8154811061136357611363613a3f565b6000918252602090912001805490915065ffffffffffff811690600160301b90046001600160d01b03168682116113a7576001600160d01b03169695505050505050565b6113ba6113b388611f8b565b8690611fc2565b6001600160d01b0316979650505050505050565b6113d6612077565b6113e060006120a9565b565b6000803390506110ad86828787878080601f016020809104026020016040519081016040528093929190818152602001838380828437600092019190915250611dbb92505050565b600033611437818461211a565b61145f5760405163d9b3955760e01b81526001600160a01b0382166004820152602401610d8b565b600061148682600161146f61167d565b6114799190613bae565b65ffffffffffff16611854565b9050600061149360025490565b9050808210156114cf57604051636121770b60e11b81526001600160a01b03841660048201526024810183905260448101829052606401610d8b565b6114dc888888888761220b565b98975050505050505050565b60006060808280808381600080516020614118833981519152805490915015801561151557506001810154155b6115595760405162461bcd60e51b81526020600482015260156024820152741152540dcc4c8e88155b9a5b9a5d1a585b1a5e9959605a1b6044820152606401610d8b565b61156161242e565b61156961246d565b60408051600080825260208201909252600f60f81b9c939b5091995046985030975095509350915050565b6000807f9016d09d72d40fdae2fd8ceac6b6234c7706214fd39c1cd1e609a0528c1993005b546001600160a01b031692915050565b600080611637846112487ff2aad550cf55f045cb27e9c559f9889fdfb6e6cdaa032301d6ea397784ae51d78989896116008b611de7565b60408051602081019690965285019390935260ff90911660608401526001600160a01b0316608083015260a082015260c00161122d565b905080611662576040516394ab6c0760e01b81526001600160a01b0385166004820152602401610d8b565b6110ad86858760405180602001604052806000815250611dbb565b600061168761191c565b6001600160a01b03166391ddadf46040518163ffffffff1660e01b8152600401602060405180830381865afa9250505080156116e0575060408051601f3d908101601f191682019092526116dd91810190613bd4565b60015b61115b576116ec6124ac565b905090565b60006111818484846124b7565b60007fe770710421fd2cad75ad828c61aa98f2d77d423a440b67872d0f65554148e00061172a81612534565b6001600160d01b031691505090565b60008181526000805160206140f883398151915260205260408120546000805160206141588339815191529061178b90600160d01b810463ffffffff1690600160a01b900465ffffffffffff16613bfc565b65ffffffffffff169392505050565b6117a2611945565b600080856001600160a01b03168585856040516117c0929190613b8b565b60006040518083038185875af1925050503d80600081146117fd576040519150601f19603f3d011682016040523d82523d6000602084013e611802565b606091505b5091509150611811828261256d565b50505050505050565b6000848484846040516020016118339493929190613ca9565b60408051601f19818403018152919052805160209091012095945050505050565b6000611875838361187060408051602081019091526000815290565b6124b7565b9392505050565b610a5a81612589565b600060646118928361131f565b61189a61191c565b6001600160a01b0316638e539e8c856040518263ffffffff1660e01b81526004016118c791815260200190565b602060405180830381865afa1580156118e4573d6000803e3d6000fd5b505050506040513d601f19601f820116820180604052508101906119089190613b3e565b6119129190613cf4565b610a439190613d21565b6000807f3ba4977254e415696610a40ebf2258dbfa0ec6a2ff64e84bfe715ff16977cc006115b9565b600080516020614158833981519152303314610a5a576040516347096e4760e01b8152336004820152602401610d8b565b8061198383600201612591565b03611976575050565b7fe770710421fd2cad75ad828c61aa98f2d77d423a440b67872d0f65554148e0006064808311156119da5760405163243e544560e01b81526004810184905260248101829052604401610d8b565b60006119e46116fe565b9050611a026119f161167d565b6119fa8661260f565b859190612643565b505060408051828152602081018690527f0553476bf02ef2726e8ce5ced78d63e26e602e4a2257b1f559418e24b4633997910160405180910390a150505050565b6000816007811115611a5757611a576133b1565b600160ff919091161b92915050565b600080611a7284610cf8565b9050600083611a8083611a43565b1603611875578381846040516331b75e4d60e01b8152600401610d8b93929190613d43565b81546001600160801b03600160801b820481169181166001830190911603611ae057604051638acb5f2760e01b815260040160405180910390fd5b6001600160801b03808216600090815260018086016020526040909120939093558354919092018216600160801b029116179055565b60005b845181101561103d57600080868381518110611b3757611b37613a3f565b60200260200101516001600160a01b0316868481518110611b5a57611b5a613a3f565b6020026020010151868581518110611b7457611b74613a3f565b6020026020010151604051611b899190613d65565b60006040518083038185875af1925050503d8060008114611bc6576040519150601f19603f3d011682016040523d82523d6000602084013e611bcb565b606091505b5091509150611bda828261256d565b50505080611be790613a6b565b9050611b19565b600081815260008051602061413883398151915260208190526040822060028101546001820154611c1f9190613d81565b611c2b6109dd86610cca565b1115949350505050565b611c3d61265e565b611c6481611c5f6040805180820190915260018152603160f81b602082015290565b6126a7565b610a5a81612708565b611c7561265e565b7f3ba4977254e415696610a40ebf2258dbfa0ec6a2ff64e84bfe715ff16977cc0080546001600160a01b0319166001600160a01b0392909216919091179055565b610a5161265e565b611cc661265e565b6001600160a01b038116611cf057604051631e4fbdf760e01b815260006004820152602401610d8b565b610a5a816120a9565b600060008051602061415883398151915281611d178787878761181a565b9050611d6581611d276007611a43565b611d316006611a43565b611d3b6002611a43565b6001611d48600782613d94565b611d53906002613e91565b611d5d9190613b9b565b181818611a66565b5060008181526001830160205260409081902080546001600160f81b0316600160f81b179055517f789cf55be980739dad1d0699b93b58e806b51c9d96619bfa8fe0a28abaa7b30c90610cb89083815260200190565b6000611dde85858585611dd960408051602081019091526000815290565b611eae565b95945050505050565b6001600160a01b031660009081527f5ab42ced628888259c08ac98db1eb0cf702fc1501344311d8b100cd1bfe4bb006020526040902080546001810190915590565b6000610a43611e3661272f565b8360405161190160f01b8152600281019290925260228201526042902090565b6000806000611e658585612739565b5090925090506000816003811115611e7f57611e7f6133b1565b148015611e9d5750856001600160a01b0316826001600160a01b0316145b806110ad57506110ad868686612786565b6000611ebe86610b576001611a43565b506000611ed486611ece89610cca565b856124b7565b9050611ee38787878487612861565b8251600003611f3857856001600160a01b03167fb8e138887d0aa13bab447e82de9d5c1777041ecd21ca36ba824ff1e6c07ddda488878488604051611f2b9493929190613ea0565b60405180910390a26110ad565b856001600160a01b03167fe2babfbac5889a709b63bb7f598b324e08bc5a4fb9ec647fb3cbc9ec07eb87128887848888604051611f79959493929190613ec8565b60405180910390a29695505050505050565b600065ffffffffffff821115611fbe576040516306dfcc6560e41b81526030600482015260248101839052604401610d8b565b5090565b815460009081816005811115612021576000611fdd8461296a565b611fe79085613b9b565b60008881526020902090915081015465ffffffffffff90811690871610156120115780915061201f565b61201c816001613d81565b92505b505b600061202f87878585612a52565b9050801561206a5761205487612046600184613b9b565b600091825260209091200190565b54600160301b90046001600160d01b0316611314565b6000979650505050505050565b33612080611594565b6001600160a01b0316146113e05760405163118cdaa760e01b8152336004820152602401610d8b565b7f9016d09d72d40fdae2fd8ceac6b6234c7706214fd39c1cd1e609a0528c19930080546001600160a01b031981166001600160a01b03848116918217845560405192169182907f8be0079c531659141344cd1fd0a4f28419497f9722a3daafe3b4186f6b6457e090600090a3505050565b80516000906034811015612132576001915050610a43565b82810160131901516001600160a01b031981166b046e0e4dee0dee6cae47a60f60a31b1461216557600192505050610a43565b600080612173602885613b9b565b90505b838110156121ea576000806121aa88848151811061219657612196613a3f565b01602001516001600160f81b031916612ab4565b91509150816121c25760019650505050505050610a43565b8060ff166004856001600160a01b0316901b1793505050806121e390613a6b565b9050612176565b50856001600160a01b0316816001600160a01b031614935050505092915050565b6000806000805160206141588339815191529050612232878787878051906020012061181a565b91508551875114158061224757508451875114155b8061225157508651155b1561228657865185518751604051630447b05d60e41b8152600481019390935260248301919091526044820152606401610d8b565b6000828152600182016020526040902054600160a01b900465ffffffffffff16156122d357816122b583610cf8565b6040516331b75e4d60e01b8152610d8b929190600090600401613d43565b600080546122df61167d565b65ffffffffffff166122f19190613d81565b905060006122fe60015490565b6000858152600185016020526040902080546001600160a01b0319166001600160a01b03881617815590915061233383611f8b565b815465ffffffffffff91909116600160a01b0265ffffffffffff60a01b1990911617815561236082612b46565b815463ffffffff91909116600160d01b0263ffffffff60d01b1990911617815589517f7d84a6263ae0d98d3329bd7b46bb4e8d6f98cd35a7adb45c274c8b7fd5ebd5e090869088908d908d906001600160401b038111156123c3576123c361308b565b6040519080825280602002602001820160405280156123f657816020015b60608152602001906001900390816123e15790505b508d896124038a82613d81565b8f60405161241999989796959493929190613f02565b60405180910390a15050505095945050505050565b7fa16a46d94261c7517cc8ff89f61c0ce93598e3c849801011dee649a6a557d102805460609160008051602061411883398151915291610a7d90613a05565b7fa16a46d94261c7517cc8ff89f61c0ce93598e3c849801011dee649a6a557d103805460609160008051602061411883398151915291610a7d90613a05565b60006116ec43611f8b565b60006124c161191c565b604051630748d63560e31b81526001600160a01b038681166004830152602482018690529190911690633a46b1a890604401602060405180830381865afa158015612510573d6000803e3d6000fd5b505050506040513d601f19601f820116820180604052508101906111819190613b3e565b805460009080156125645761254e83612046600184613b9b565b54600160301b90046001600160d01b0316611875565b60009392505050565b6060826125825761257d82612b77565b610a43565b5080610a43565b611cc6612077565b80546000906001600160801b0380821691600160801b90041681036125c9576040516375e52f4f60e01b815260040160405180910390fd5b6001600160801b038181166000908152600185810160205260408220805492905585546fffffffffffffffffffffffffffffffff19169301909116919091179092555090565b60006001600160d01b03821115611fbe576040516306dfcc6560e41b815260d0600482015260248101839052604401610d8b565b600080612651858585612ba0565b915091505b935093915050565b7ff0c57e16840df040f15088dc2f81fe391c3923bec73e23a9662efc9c229c6a0054600160401b900460ff166113e057604051631afcd79f60e31b815260040160405180910390fd5b6126af61265e565b6000805160206141188339815191527fa16a46d94261c7517cc8ff89f61c0ce93598e3c849801011dee649a6a557d1026126e9848261401f565b50600381016126f8838261401f565b5060008082556001909101555050565b61271061265e565b6000805160206141588339815191528061272a838261401f565b505050565b60006116ec612d1a565b600080600083516041036127735760208401516040850151606086015160001a61276588828585612d8e565b95509550955050505061277f565b50508151600091506002905b9250925092565b6000806000856001600160a01b031685856040516024016127a89291906140de565b60408051601f198184030181529181526020820180516001600160e01b0316630b135d3f60e11b179052516127dd9190613d65565b600060405180830381855afa9150503d8060008114612818576040519150601f19603f3d011682016040523d82523d6000602084013e61281d565b606091505b509150915081801561283157506020815110155b80156110ad57508051630b135d3f60e11b906128569083016020908101908401613b3e565b149695505050505050565b6000858152600080516020614138833981519152602081815260408084206001600160a01b0389168552600381019092529092205490919060ff16156128c5576040516371c6af4960e01b81526001600160a01b0387166004820152602401610d8b565b6001600160a01b03861660009081526003820160205260409020805460ff1916600117905560ff851661291157838160000160008282546129069190613d81565b909155506118119050565b60001960ff86160161293157838160010160008282546129069190613d81565b60011960ff86160161295157838160020160008282546129069190613d81565b6040516303599be160e11b815260040160405180910390fd5b60008160000361297c57506000919050565b6000600161298984612e5d565b901c6001901b905060018184816129a2576129a2613d0b565b048201901c905060018184816129ba576129ba613d0b565b048201901c905060018184816129d2576129d2613d0b565b048201901c905060018184816129ea576129ea613d0b565b048201901c90506001818481612a0257612a02613d0b565b048201901c90506001818481612a1a57612a1a613d0b565b048201901c90506001818481612a3257612a32613d0b565b048201901c905061187581828581612a4c57612a4c613d0b565b04612ef1565b60005b81831015612aac576000612a698484612f07565b60008781526020902090915065ffffffffffff86169082015465ffffffffffff161115612a9857809250612aa6565b612aa3816001613d81565b93505b50612a55565b509392505050565b60008060f883901c602f81118015612acf5750603a8160ff16105b15612ae457600194602f199091019350915050565b8060ff166040108015612afa575060478160ff16105b15612b0f576001946036199091019350915050565b8060ff166060108015612b25575060678160ff16105b15612b3a576001946056199091019350915050565b50600093849350915050565b600063ffffffff821115611fbe576040516306dfcc6560e41b81526020600482015260248101839052604401610d8b565b805115612b875780518082602001fd5b604051630a12f52160e11b815260040160405180910390fd5b825460009081908015612cbf576000612bbe87612046600185613b9b565b60408051808201909152905465ffffffffffff808216808452600160301b9092046001600160d01b031660208401529192509087161015612c1257604051632520601d60e01b815260040160405180910390fd5b805165ffffffffffff808816911603612c5e5784612c3588612046600186613b9b565b80546001600160d01b0392909216600160301b0265ffffffffffff909216919091179055612caf565b6040805180820190915265ffffffffffff80881682526001600160d01b0380881660208085019182528b54600181018d5560008d81529190912094519151909216600160301b029216919091179101555b6020015192508391506126569050565b50506040805180820190915265ffffffffffff80851682526001600160d01b0380851660208085019182528854600181018a5560008a815291822095519251909316600160301b029190931617920191909155905081612656565b60007f8b73c3c69bb8fe3d512ecc4cf759cc79239f7b179b0ffacaa9a75d522b39400f612d45612f22565b612d4d612f8c565b60408051602081019490945283019190915260608201524660808201523060a082015260c00160405160208183030381529060405280519060200120905090565b600080807f7fffffffffffffffffffffffffffffff5d576e7357a4501ddfe92f46681b20a0841115612dc95750600091506003905082612e53565b604080516000808252602082018084528a905260ff891692820192909252606081018790526080810186905260019060a0016020604051602081039080840390855afa158015612e1d573d6000803e3d6000fd5b5050604051601f1901519150506001600160a01b038116612e4957506000925060019150829050612e53565b9250600091508190505b9450945094915050565b600080608083901c15612e7257608092831c92015b604083901c15612e8457604092831c92015b602083901c15612e9657602092831c92015b601083901c15612ea857601092831c92015b600883901c15612eba57600892831c92015b600483901c15612ecc57600492831c92015b600283901c15612ede57600292831c92015b600183901c15610a435760010192915050565b6000818310612f005781611875565b5090919050565b6000612f166002848418613d21565b61187590848416613d81565b600060008051602061411883398151915281612f3c61242e565b805190915015612f5457805160209091012092915050565b81548015612f63579392505050565b7fc5d2460186f7233c927e7db2dcc703c0e500b653ca82273b7bfad8045d85a470935050505090565b600060008051602061411883398151915281612fa661246d565b805190915015612fbe57805160209091012092915050565b60018201548015612f63579392505050565b600060208284031215612fe257600080fd5b81356001600160e01b03198116811461187557600080fd5b60006020828403121561300c57600080fd5b5035919050565b60005b8381101561302e578181015183820152602001613016565b50506000910152565b6000815180845261304f816020860160208601613013565b601f01601f19169290920160200192915050565b6020815260006118756020830184613037565b6001600160a01b0381168114610a5a57600080fd5b634e487b7160e01b600052604160045260246000fd5b604051601f8201601f191681016001600160401b03811182821017156130c9576130c961308b565b604052919050565b60006001600160401b038211156130ea576130ea61308b565b50601f01601f191660200190565b600061310b613106846130d1565b6130a1565b905082815283838301111561311f57600080fd5b828260208301376000602084830101529392505050565b600082601f83011261314757600080fd5b611875838335602085016130f8565b6000806000806080858703121561316c57600080fd5b843561317781613076565b9350602085013561318781613076565b92506040850135915060608501356001600160401b038111156131a957600080fd5b6131b587828801613136565b91505092959194509250565b60006001600160401b038211156131da576131da61308b565b5060051b60200190565b600082601f8301126131f557600080fd5b81356020613205613106836131c1565b82815260059290921b8401810191818101908684111561322457600080fd5b8286015b84811015610b7857803561323b81613076565b8352918301918301613228565b600082601f83011261325957600080fd5b81356020613269613106836131c1565b82815260059290921b8401810191818101908684111561328857600080fd5b8286015b84811015610b78578035835291830191830161328c565b600082601f8301126132b457600080fd5b813560206132c4613106836131c1565b82815260059290921b840181019181810190868411156132e357600080fd5b8286015b84811015610b785780356001600160401b038111156133065760008081fd5b6133148986838b0101613136565b8452509183019183016132e7565b6000806000806080858703121561333857600080fd5b84356001600160401b038082111561334f57600080fd5b61335b888389016131e4565b9550602087013591508082111561337157600080fd5b61337d88838901613248565b9450604087013591508082111561339357600080fd5b506133a0878288016132a3565b949793965093946060013593505050565b634e487b7160e01b600052602160045260246000fd5b600881106133e557634e487b7160e01b600052602160045260246000fd5b9052565b60208101610a4382846133c7565b6000806040838503121561340a57600080fd5b82359150602083013561341c81613076565b809150509250929050565b60006020828403121561343957600080fd5b81356001600160401b0381111561344f57600080fd5b61118184828501613136565b803560ff8116811461115b57600080fd5b6000806040838503121561347f57600080fd5b8235915061348f6020840161345b565b90509250929050565b60008083601f8401126134aa57600080fd5b5081356001600160401b038111156134c157600080fd5b6020830191508360208285010111156134d957600080fd5b9250929050565b600080600080600080600060c0888a0312156134fb57600080fd5b8735965061350b6020890161345b565b9550604088013561351b81613076565b945060608801356001600160401b038082111561353757600080fd5b6135438b838c01613498565b909650945060808a013591508082111561355c57600080fd5b6135688b838c01613136565b935060a08a013591508082111561357e57600080fd5b5061358b8a828b01613136565b91505092959891949750929550565b6000806000806000608086880312156135b257600080fd5b853594506135c26020870161345b565b935060408601356001600160401b03808211156135de57600080fd5b6135ea89838a01613498565b9095509350606088013591508082111561360357600080fd5b5061361088828901613136565b9150509295509295909350565b6000806000806060858703121561363357600080fd5b843593506136436020860161345b565b925060408501356001600160401b0381111561365e57600080fd5b61366a87828801613498565b95989497509550505050565b6000806000806080858703121561368c57600080fd5b84356001600160401b03808211156136a357600080fd5b6136af888389016131e4565b955060208701359150808211156136c557600080fd5b6136d188838901613248565b945060408701359150808211156136e757600080fd5b6136f3888389016132a3565b9350606087013591508082111561370957600080fd5b508501601f8101871361371b57600080fd5b6131b5878235602084016130f8565b60006020828403121561373c57600080fd5b813561187581613076565b600081518084526020808501945080840160005b838110156137775781518752958201959082019060010161375b565b509495945050505050565b60ff60f81b8816815260e0602082015260006137a160e0830189613037565b82810360408401526137b38189613037565b606084018890526001600160a01b038716608085015260a0840186905283810360c085015290506137e48185613747565b9a9950505050505050505050565b6000806000806080858703121561380857600080fd5b843593506138186020860161345b565b9250604085013561382881613076565b915060608501356001600160401b038111156131a957600080fd5b60008060006060848603121561385857600080fd5b833561386381613076565b92506020840135915060408401356001600160401b0381111561388557600080fd5b61389186828701613136565b9150509250925092565b600080600080600060a086880312156138b357600080fd5b85356138be81613076565b945060208601356138ce81613076565b935060408601356001600160401b03808211156138ea57600080fd5b6138f689838a01613248565b9450606088013591508082111561390c57600080fd5b61391889838a01613248565b9350608088013591508082111561360357600080fd5b6000806000806060858703121561394457600080fd5b843561394f81613076565b93506020850135925060408501356001600160401b0381111561365e57600080fd5b6000806040838503121561398457600080fd5b823561398f81613076565b946020939093013593505050565b600080600080600060a086880312156139b557600080fd5b85356139c081613076565b945060208601356139d081613076565b9350604086013592506060860135915060808601356001600160401b038111156139f957600080fd5b61361088828901613136565b600181811c90821680613a1957607f821691505b602082108103613a3957634e487b7160e01b600052602260045260246000fd5b50919050565b634e487b7160e01b600052603260045260246000fd5b634e487b7160e01b600052601160045260246000fd5b600060018201613a7d57613a7d613a55565b5060010190565b600082601f830112613a9557600080fd5b8151613aa3613106826130d1565b818152846020838601011115613ab857600080fd5b611181826020830160208701613013565b60008060008060008060c08789031215613ae257600080fd5b86516001600160401b03811115613af857600080fd5b613b0489828a01613a84565b9650506020870151613b1581613076565b6040880151606089015160808a015160a0909a0151989b929a5090989097909650945092505050565b600060208284031215613b5057600080fd5b5051919050565b600060208284031215613b6957600080fd5b81516001600160401b03811115613b7f57600080fd5b61118184828501613a84565b8183823760009101908152919050565b81810381811115610a4357610a43613a55565b65ffffffffffff828116828216039080821115613bcd57613bcd613a55565b5092915050565b600060208284031215613be657600080fd5b815165ffffffffffff8116811461187557600080fd5b65ffffffffffff818116838216019080821115613bcd57613bcd613a55565b600081518084526020808501945080840160005b838110156137775781516001600160a01b031687529582019590820190600101613c2f565b600081518084526020808501808196508360051b8101915082860160005b85811015613c9c578284038952613c8a848351613037565b98850198935090840190600101613c72565b5091979650505050505050565b608081526000613cbc6080830187613c1b565b8281036020840152613cce8187613747565b90508281036040840152613ce28186613c54565b91505082606083015295945050505050565b8082028115828204841417610a4357610a43613a55565b634e487b7160e01b600052601260045260246000fd5b600082613d3e57634e487b7160e01b600052601260045260246000fd5b500490565b83815260608101613d5760208301856133c7565b826040830152949350505050565b60008251613d77818460208701613013565b9190910192915050565b80820180821115610a4357610a43613a55565b60ff8181168382160190811115610a4357610a43613a55565b600181815b80851115613de8578160001904821115613dce57613dce613a55565b80851615613ddb57918102915b93841c9390800290613db2565b509250929050565b600082613dff57506001610a43565b81613e0c57506000610a43565b8160018114613e225760028114613e2c57613e48565b6001915050610a43565b60ff841115613e3d57613e3d613a55565b50506001821b610a43565b5060208310610133831016604e8410600b8410161715613e6b575081810a610a43565b613e758383613dad565b8060001904821115613e8957613e89613a55565b029392505050565b600061187560ff841683613df0565b84815260ff841660208201528260408201526080606082015260006110ad6080830184613037565b85815260ff8516602082015283604082015260a060608201526000613ef060a0830185613037565b82810360808401526114dc8185613037565b60006101208b8352602060018060a01b038c1681850152816040850152613f2b8285018c613c1b565b91508382036060850152613f3f828b613747565b915083820360808501528189518084528284019150828160051b850101838c0160005b83811015613f9057601f19878403018552613f7e838351613037565b94860194925090850190600101613f62565b505086810360a0880152613fa4818c613c54565b9450505050508560c08401528460e0840152828103610100840152613fc98185613037565b9c9b505050505050505050505050565b601f82111561272a57600081815260208120601f850160051c810160208610156140005750805b601f850160051c820191505b8181101561103d5782815560010161400c565b81516001600160401b038111156140385761403861308b565b61404c816140468454613a05565b84613fd9565b602080601f83116001811461408157600084156140695750858301515b600019600386901b1c1916600185901b17855561103d565b600085815260208120601f198616915b828110156140b057888601518255948401946001909101908401614091565b50858210156140ce5787850151600019600388901b60f8161c191681555b5050505050600190811b01905550565b828152604060208201526000611181604083018461303756fe7c712897014dbe49c045ef1299aa2d5f9e67e48eea4403efa21f1e0f3ac0cb01a16a46d94261c7517cc8ff89f61c0ce93598e3c849801011dee649a6a557d100a1cefa0f43667ef127a258e673c94202a79b656e62899531c4376d87a7f398007c712897014dbe49c045ef1299aa2d5f9e67e48eea4403efa21f1e0f3ac0cb00a26469706673582212207a3b7660fce9cf7756ef86d4eb1c3fdd2b4b52120a0f1d62fdb5be4fb297b3a064736f6c63430008140033",
  "devdoc": {
    "errors": {
      "CheckpointUnorderedInsertion()": [
        {
          "details": "A value was attempted to be inserted on a past checkpoint."
        }
      ],
      "FailedInnerCall()": [
        {
          "details": "A call to an address target failed. The target may have reverted."
        }
      ],
      "GovernorAlreadyCastVote(address)": [
        {
          "details": "The vote was already cast."
        }
      ],
      "GovernorAlreadyQueuedProposal(uint256)": [
        {
          "details": "The proposal has already been queued."
        }
      ],
      "GovernorDisabledDeposit()": [
        {
          "details": "Token deposits are disabled in this contract."
        }
      ],
      "GovernorInsufficientProposerVotes(address,uint256,uint256)": [
        {
          "details": "The `proposer` does not have the required votes to create a proposal."
        }
      ],
      "GovernorInvalidProposalLength(uint256,uint256,uint256)": [
        {
          "details": "Empty proposal or a mismatch between the parameters length for a proposal call."
        }
      ],
      "GovernorInvalidQuorumFraction(uint256,uint256)": [
        {
          "details": "The quorum set is not a valid fraction."
        }
      ],
      "GovernorInvalidSignature(address)": [
        {
          "details": "The provided signature is not valid for the expected `voter`. If the `voter` is a contract, the signature is not valid using {IERC1271-isValidSignature}."
        }
      ],
      "GovernorInvalidVoteType()": [
        {
          "details": "The vote type used is not valid for the corresponding counting module."
        }
      ],
      "GovernorInvalidVotingPeriod(uint256)": [
        {
          "details": "The voting period set is not a valid period."
        }
      ],
      "GovernorNonexistentProposal(uint256)": [
        {
          "details": "The `proposalId` doesn't exist."
        }
      ],
      "GovernorNotQueuedProposal(uint256)": [
        {
          "details": "The proposal hasn't been queued yet."
        }
      ],
      "GovernorOnlyExecutor(address)": [
        {
          "details": "The `account` is not the governance executor."
        }
      ],
      "GovernorOnlyProposer(address)": [
        {
          "details": "The `account` is not a proposer."
        }
      ],
      "GovernorQueueNotImplemented()": [
        {
          "details": "Queue operation is not implemented for this governor. Execute should be called directly."
        }
      ],
      "GovernorRestrictedProposer(address)": [
        {
          "details": "The `proposer` is not allowed to create a proposal."
        }
      ],
      "GovernorUnexpectedProposalState(uint256,uint8,bytes32)": [
        {
          "details": "The current state of a proposal is not the required for performing an operation. The `expectedStates` is a bitmap with the bits enabled for each ProposalState enum position counting from right to left. NOTE: If `expectedState` is `bytes32(0)`, the proposal is expected to not be in any state (i.e. not exist). This is the case when a proposal that is expected to be unset is already initiated (the proposal is duplicated). See {Governor-_encodeStateBitmap}."
        }
      ],
      "InvalidAccountNonce(address,uint256)": [
        {
          "details": "The nonce used for an `account` is not the expected current nonce."
        }
      ],
      "InvalidInitialization()": [
        {
          "details": "The contract is already initialized."
        }
      ],
      "NotInitializing()": [
        {
          "details": "The contract is not initializing."
        }
      ],
      "OwnableInvalidOwner(address)": [
        {
          "details": "The owner is not a valid owner account. (eg. `address(0)`)"
        }
      ],
      "OwnableUnauthorizedAccount(address)": [
        {
          "details": "The caller account is not authorized to perform an operation."
        }
      ],
      "QueueEmpty()": [
        {
          "details": "An operation (e.g. {front}) couldn't be completed due to the queue being empty."
        }
      ],
      "QueueFull()": [
        {
          "details": "A push operation couldn't be completed due to the queue being full."
        }
      ],
      "SafeCastOverflowedUintDowncast(uint8,uint256)": [
        {
          "details": "Value doesn't fit in an uint of `bits` size."
        }
      ]
    },
    "events": {
      "EIP712DomainChanged()": {
        "details": "MAY be emitted to signal that the domain could have changed."
      },
      "Initialized(uint64)": {
        "details": "Triggered when the contract has been initialized or reinitialized."
      },
      "ProposalCanceled(uint256)": {
        "details": "Emitted when a proposal is canceled."
      },
      "ProposalCreated(uint256,address,address[],uint256[],string[],bytes[],uint256,uint256,string)": {
        "details": "Emitted when a proposal is created."
      },
      "ProposalExecuted(uint256)": {
        "details": "Emitted when a proposal is executed."
      },
      "ProposalQueued(uint256,uint256)": {
        "details": "Emitted when a proposal is queued."
      },
      "VoteCast(address,uint256,uint8,uint256,string)": {
        "details": "Emitted when a vote is cast without params. Note: `support` values should be seen as buckets. Their interpretation depends on the voting module used."
      },
      "VoteCastWithParams(address,uint256,uint8,uint256,string,bytes)": {
        "details": "Emitted when a vote is cast with params. Note: `support` values should be seen as buckets. Their interpretation depends on the voting module used. `params` are additional encoded parameters. Their interpepretation also depends on the voting module used."
      }
    },
    "kind": "dev",
    "methods": {
      "CLOCK_MODE()": {
        "details": "Machine-readable description of the clock as specified in EIP-6372."
      },
      "COUNTING_MODE()": {
        "details": "See {IGovernor-COUNTING_MODE}."
      },
      "cancel(address[],uint256[],bytes[],bytes32)": {
        "details": "See {IGovernor-cancel}."
      },
      "castVote(uint256,uint8)": {
        "details": "See {IGovernor-castVote}."
      },
      "castVoteBySig(uint256,uint8,address,bytes)": {
        "details": "See {IGovernor-castVoteBySig}."
      },
      "castVoteWithReason(uint256,uint8,string)": {
        "details": "See {IGovernor-castVoteWithReason}."
      },
      "castVoteWithReasonAndParams(uint256,uint8,string,bytes)": {
        "details": "See {IGovernor-castVoteWithReasonAndParams}."
      },
      "castVoteWithReasonAndParamsBySig(uint256,uint8,address,string,bytes,bytes)": {
        "details": "See {IGovernor-castVoteWithReasonAndParamsBySig}."
      },
      "clock()": {
        "details": "Clock (as specified in EIP-6372) is set to match the token's clock. Fallback to block numbers if the token does not implement EIP-6372."
      },
      "eip712Domain()": {
        "details": "See {IERC-5267}."
      },
      "execute(address[],uint256[],bytes[],bytes32)": {
        "details": "See {IGovernor-execute}."
      },
      "getVotes(address,uint256)": {
        "details": "See {IGovernor-getVotes}."
      },
      "getVotesWithParams(address,uint256,bytes)": {
        "details": "See {IGovernor-getVotesWithParams}."
      },
      "hasVoted(uint256,address)": {
        "details": "See {IGovernor-hasVoted}."
      },
      "hashProposal(address[],uint256[],bytes[],bytes32)": {
        "details": "See {IGovernor-hashProposal}. The proposal id is produced by hashing the ABI encoded `targets` array, the `values` array, the `calldatas` array and the descriptionHash (bytes32 which itself is the keccak256 hash of the description string). This proposal id can be produced from the proposal data which is part of the {ProposalCreated} event. It can even be computed in advance, before the proposal is submitted. Note that the chainId and the governor address are not part of the proposal id computation. Consequently, the same proposal (with same operation and same description) will have the same id if submitted on multiple governors across multiple networks. This also means that in order to execute the same operation twice (on the same governor) the proposer will have to change the description in order to avoid proposal id conflicts."
      },
      "name()": {
        "details": "See {IGovernor-name}."
      },
      "nonces(address)": {
        "details": "Returns the next unused nonce for an address."
      },
      "onERC1155BatchReceived(address,address,uint256[],uint256[],bytes)": {
        "details": "See {IERC1155Receiver-onERC1155BatchReceived}. Receiving tokens is disabled if the governance executor is other than the governor itself (eg. when using with a timelock)."
      },
      "onERC1155Received(address,address,uint256,uint256,bytes)": {
        "details": "See {IERC1155Receiver-onERC1155Received}. Receiving tokens is disabled if the governance executor is other than the governor itself (eg. when using with a timelock)."
      },
      "onERC721Received(address,address,uint256,bytes)": {
        "details": "See {IERC721Receiver-onERC721Received}. Receiving tokens is disabled if the governance executor is other than the governor itself (eg. when using with a timelock)."
      },
      "owner()": {
        "details": "Returns the address of the current owner."
      },
      "proposalDeadline(uint256)": {
        "details": "See {IGovernor-proposalDeadline}."
      },
      "proposalEta(uint256)": {
        "details": "See {IGovernor-proposalEta}."
      },
      "proposalNeedsQueuing(uint256)": {
        "details": "See {IGovernor-proposalNeedsQueuing}."
      },
      "proposalProposer(uint256)": {
        "details": "See {IGovernor-proposalProposer}."
      },
      "proposalSnapshot(uint256)": {
        "details": "See {IGovernor-proposalSnapshot}."
      },
      "proposalThreshold()": {
        "details": "See {IGovernor-proposalThreshold}."
      },
      "proposalVotes(uint256)": {
        "details": "Accessor to the internal vote counts."
      },
      "propose(address[],uint256[],bytes[],string)": {
        "details": "See {IGovernor-propose}. This function has opt-in frontrunning protection, described in {_isValidDescriptionForProposer}."
      },
      "queue(address[],uint256[],bytes[],bytes32)": {
        "details": "See {IGovernor-queue}."
      },
      "quorum(uint256)": {
        "details": "Returns the quorum for a timepoint, in terms of number of votes: `supply * numerator / denominator`."
      },
      "quorumDenominator()": {
        "details": "Returns the quorum denominator. Defaults to 100, but may be overridden."
      },
      "quorumNumerator()": {
        "details": "Returns the current quorum numerator. See {quorumDenominator}."
      },
      "quorumNumerator(uint256)": {
        "details": "Returns the quorum numerator at a specific timepoint. See {quorumDenominator}."
      },
      "relay(address,uint256,bytes)": {
        "details": "Relays a transaction or function call to an arbitrary target. In cases where the governance executor is some contract other than the governor itself, like when using a timelock, this function can be invoked in a governance proposal to recover tokens or Ether that was sent to the governor contract by mistake. Note that if the executor is simply the governor itself, use of `relay` is redundant."
      },
      "renounceOwnership()": {
        "details": "Leaves the contract without owner. It will not be possible to call `onlyOwner` functions. Can only be called by the current owner. NOTE: Renouncing ownership will leave the contract without an owner, thereby disabling any functionality that is only available to the owner."
      },
      "state(uint256)": {
        "details": "See {IGovernor-state}."
      },
      "supportsInterface(bytes4)": {
        "details": "See {IERC165-supportsInterface}."
      },
      "token()": {
        "details": "The token that voting power is sourced from."
      },
      "updateQuorumNumerator(uint256)": {
        "details": "Changes the quorum numerator. Emits a {QuorumNumeratorUpdated} event. Requirements: - Must be called through a governance proposal. - New numerator must be smaller or equal to the denominator."
      },
      "version()": {
        "details": "See {IGovernor-version}."
      },
      "votingDelay()": {
        "details": "Delay, between the proposal is created and the vote starts. The unit this duration is expressed in depends on the clock (see EIP-6372) this contract uses. This can be increased to leave time for users to buy voting power, or delegate it, before the voting of a proposal starts. NOTE: While this interface returns a uint256, timepoints are stored as uint48 following the ERC-6372 clock type. Consequently this value must fit in a uint48 (when added to the current clock). See {IERC6372-clock}."
      },
      "votingPeriod()": {
        "details": "Delay between the vote start and vote end. The unit this duration is expressed in depends on the clock (see EIP-6372) this contract uses. NOTE: The {votingDelay} can delay the start of the vote. This must be considered when setting the voting duration compared to the voting delay. NOTE: This value is stored when the proposal is submitted so that possible changes to the value do not affect proposals that have already been submitted. The type used to save it is a uint32. Consequently, while this interface returns a uint256, the value it returns should fit in a uint32."
      }
    },
    "version": 1
  },
  "userdoc": {
    "kind": "user",
    "methods": {
      "votingDelay()": {
        "notice": "module:user-config"
      },
      "votingPeriod()": {
        "notice": "module:user-config"
      }
    },
    "version": 1
  },
  "storageLayout": {
    "storage": [
      {
        "astId": 13218,
        "contract": "contracts/DAOGovernorUpgradeable.sol:DAOGovernorUpgradeable",
        "label": "_votingDelay",
        "offset": 0,
        "slot": "0",
        "type": "t_uint256"
      },
      {
        "astId": 13220,
        "contract": "contracts/DAOGovernorUpgradeable.sol:DAOGovernorUpgradeable",
        "label": "_votingPeriod",
        "offset": 0,
        "slot": "1",
        "type": "t_uint256"
      },
      {
        "astId": 13222,
        "contract": "contracts/DAOGovernorUpgradeable.sol:DAOGovernorUpgradeable",
        "label": "_proposalThreshold",
        "offset": 0,
        "slot": "2",
        "type": "t_uint256"
      }
    ],
    "types": {
      "t_uint256": {
        "encoding": "inplace",
        "label": "uint256",
        "numberOfBytes": "32"
      }
    }
  }
}