{
  "address": "0x176B826756D82cBc5571B87dB88264761346E586",
  "abi": [
    {
      "inputs": [],
      "name": "CheckpointUnorderedInsertion",
      "type": "error"
    },
    {
      "inputs": [],
      "name": "FailedInnerCall",
      "type": "error"
    },
    {
      "inputs": [
        {
          "internalType": "address",
          "name": "voter",
          "type": "address"
        }
      ],
      "name": "GovernorAlreadyCastVote",
      "type": "error"
    },
    {
      "inputs": [
        {
          "internalType": "uint256",
          "name": "proposalId",
          "type": "uint256"
        }
      ],
      "name": "GovernorAlreadyQueuedProposal",
      "type": "error"
    },
    {
      "inputs": [],
      "name": "GovernorDisabledDeposit",
      "type": "error"
    },
    {
      "inputs": [
        {
          "internalType": "address",
          "name": "proposer",
          "type": "address"
        },
        {
          "internalType": "uint256",
          "name": "votes",
          "type": "uint256"
        },
        {
          "internalType": "uint256",
          "name": "threshold",
          "type": "uint256"
        }
      ],
      "name": "GovernorInsufficientProposerVotes",
      "type": "error"
    },
    {
      "inputs": [
        {
          "internalType": "uint256",
          "name": "targets",
          "type": "uint256"
        },
        {
          "internalType": "uint256",
          "name": "calldatas",
          "type": "uint256"
        },
        {
          "internalType": "uint256",
          "name": "values",
          "type": "uint256"
        }
      ],
      "name": "GovernorInvalidProposalLength",
      "type": "error"
    },
    {
      "inputs": [
        {
          "internalType": "uint256",
          "name": "quorumNumerator",
          "type": "uint256"
        },
        {
          "internalType": "uint256",
          "name": "quorumDenominator",
          "type": "uint256"
        }
      ],
      "name": "GovernorInvalidQuorumFraction",
      "type": "error"
    },
    {
      "inputs": [
        {
          "internalType": "address",
          "name": "voter",
          "type": "address"
        }
      ],
      "name": "GovernorInvalidSignature",
      "type": "error"
    },
    {
      "inputs": [],
      "name": "GovernorInvalidVoteType",
      "type": "error"
    },
    {
      "inputs": [
        {
          "internalType": "uint256",
          "name": "votingPeriod",
          "type": "uint256"
        }
      ],
      "name": "GovernorInvalidVotingPeriod",
      "type": "error"
    },
    {
      "inputs": [
        {
          "internalType": "uint256",
          "name": "proposalId",
          "type": "uint256"
        }
      ],
      "name": "GovernorNonexistentProposal",
      "type": "error"
    },
    {
      "inputs": [
        {
          "internalType": "uint256",
          "name": "proposalId",
          "type": "uint256"
        }
      ],
      "name": "GovernorNotQueuedProposal",
      "type": "error"
    },
    {
      "inputs": [
        {
          "internalType": "address",
          "name": "account",
          "type": "address"
        }
      ],
      "name": "GovernorOnlyExecutor",
      "type": "error"
    },
    {
      "inputs": [
        {
          "internalType": "address",
          "name": "account",
          "type": "address"
        }
      ],
      "name": "GovernorOnlyProposer",
      "type": "error"
    },
    {
      "inputs": [],
      "name": "GovernorQueueNotImplemented",
      "type": "error"
    },
    {
      "inputs": [
        {
          "internalType": "address",
          "name": "proposer",
          "type": "address"
        }
      ],
      "name": "GovernorRestrictedProposer",
      "type": "error"
    },
    {
      "inputs": [
        {
          "internalType": "uint256",
          "name": "proposalId",
          "type": "uint256"
        },
        {
          "internalType": "enum IGovernor.ProposalState",
          "name": "current",
          "type": "uint8"
        },
        {
          "internalType": "bytes32",
          "name": "expectedStates",
          "type": "bytes32"
        }
      ],
      "name": "GovernorUnexpectedProposalState",
      "type": "error"
    },
    {
      "inputs": [
        {
          "internalType": "address",
          "name": "account",
          "type": "address"
        },
        {
          "internalType": "uint256",
          "name": "currentNonce",
          "type": "uint256"
        }
      ],
      "name": "InvalidAccountNonce",
      "type": "error"
    },
    {
      "inputs": [],
      "name": "InvalidInitialization",
      "type": "error"
    },
    {
      "inputs": [],
      "name": "NotInitializing",
      "type": "error"
    },
    {
      "inputs": [
        {
          "internalType": "address",
          "name": "owner",
          "type": "address"
        }
      ],
      "name": "OwnableInvalidOwner",
      "type": "error"
    },
    {
      "inputs": [
        {
          "internalType": "address",
          "name": "account",
          "type": "address"
        }
      ],
      "name": "OwnableUnauthorizedAccount",
      "type": "error"
    },
    {
      "inputs": [],
      "name": "QueueEmpty",
      "type": "error"
    },
    {
      "inputs": [],
      "name": "QueueFull",
      "type": "error"
    },
    {
      "inputs": [
        {
          "internalType": "uint8",
          "name": "bits",
          "type": "uint8"
        },
        {
          "internalType": "uint256",
          "name": "value",
          "type": "uint256"
        }
      ],
      "name": "SafeCastOverflowedUintDowncast",
      "type": "error"
    },
    {
      "inputs": [],
      "name": "TokenMismatch",
      "type": "error"
    },
    {
      "inputs": [],
      "name": "Unauthorized",
      "type": "error"
    },
    {
      "anonymous": false,
      "inputs": [],
      "name": "EIP712DomainChanged",
      "type": "event"
    },
    {
      "anonymous": false,
      "inputs": [
        {
          "indexed": false,
          "internalType": "uint64",
          "name": "version",
          "type": "uint64"
        }
      ],
      "name": "Initialized",
      "type": "event"
    },
    {
      "anonymous": false,
      "inputs": [
        {
          "indexed": true,
          "internalType": "address",
          "name": "previousOwner",
          "type": "address"
        },
        {
          "indexed": true,
          "internalType": "address",
          "name": "newOwner",
          "type": "address"
        }
      ],
      "name": "OwnershipTransferred",
      "type": "event"
    },
    {
      "anonymous": false,
      "inputs": [
        {
          "indexed": false,
          "internalType": "uint256",
          "name": "proposalId",
          "type": "uint256"
        }
      ],
      "name": "ProposalCanceled",
      "type": "event"
    },
    {
      "anonymous": false,
      "inputs": [
        {
          "indexed": false,
          "internalType": "uint256",
          "name": "proposalId",
          "type": "uint256"
        },
        {
          "indexed": false,
          "internalType": "address",
          "name": "proposer",
          "type": "address"
        },
        {
          "indexed": false,
          "internalType": "address[]",
          "name": "targets",
          "type": "address[]"
        },
        {
          "indexed": false,
          "internalType": "uint256[]",
          "name": "values",
          "type": "uint256[]"
        },
        {
          "indexed": false,
          "internalType": "string[]",
          "name": "signatures",
          "type": "string[]"
        },
        {
          "indexed": false,
          "internalType": "bytes[]",
          "name": "calldatas",
          "type": "bytes[]"
        },
        {
          "indexed": false,
          "internalType": "uint256",
          "name": "voteStart",
          "type": "uint256"
        },
        {
          "indexed": false,
          "internalType": "uint256",
          "name": "voteEnd",
          "type": "uint256"
        },
        {
          "indexed": false,
          "internalType": "string",
          "name": "description",
          "type": "string"
        }
      ],
      "name": "ProposalCreated",
      "type": "event"
    },
    {
      "anonymous": false,
      "inputs": [
        {
          "indexed": false,
          "internalType": "uint256",
          "name": "proposalId",
          "type": "uint256"
        }
      ],
      "name": "ProposalExecuted",
      "type": "event"
    },
    {
      "anonymous": false,
      "inputs": [
        {
          "indexed": false,
          "internalType": "uint256",
          "name": "proposalId",
          "type": "uint256"
        },
        {
          "indexed": false,
          "internalType": "uint256",
          "name": "etaSeconds",
          "type": "uint256"
        }
      ],
      "name": "ProposalQueued",
      "type": "event"
    },
    {
      "anonymous": false,
      "inputs": [
        {
          "indexed": false,
          "internalType": "uint256",
          "name": "oldQuorumNumerator",
          "type": "uint256"
        },
        {
          "indexed": false,
          "internalType": "uint256",
          "name": "newQuorumNumerator",
          "type": "uint256"
        }
      ],
      "name": "QuorumNumeratorUpdated",
      "type": "event"
    },
    {
      "anonymous": false,
      "inputs": [
        {
          "indexed": true,
          "internalType": "address",
          "name": "voter",
          "type": "address"
        },
        {
          "indexed": false,
          "internalType": "uint256",
          "name": "proposalId",
          "type": "uint256"
        },
        {
          "indexed": false,
          "internalType": "uint8",
          "name": "support",
          "type": "uint8"
        },
        {
          "indexed": false,
          "internalType": "uint256",
          "name": "weight",
          "type": "uint256"
        },
        {
          "indexed": false,
          "internalType": "string",
          "name": "reason",
          "type": "string"
        }
      ],
      "name": "VoteCast",
      "type": "event"
    },
    {
      "anonymous": false,
      "inputs": [
        {
          "indexed": true,
          "internalType": "address",
          "name": "voter",
          "type": "address"
        },
        {
          "indexed": false,
          "internalType": "uint256",
          "name": "proposalId",
          "type": "uint256"
        },
        {
          "indexed": false,
          "internalType": "uint8",
          "name": "support",
          "type": "uint8"
        },
        {
          "indexed": false,
          "internalType": "uint256",
          "name": "weight",
          "type": "uint256"
        },
        {
          "indexed": false,
          "internalType": "string",
          "name": "reason",
          "type": "string"
        },
        {
          "indexed": false,
          "internalType": "bytes",
          "name": "params",
          "type": "bytes"
        }
      ],
      "name": "VoteCastWithParams",
      "type": "event"
    },
    {
      "inputs": [],
      "name": "BALLOT_TYPEHASH",
      "outputs": [
        {
          "internalType": "bytes32",
          "name": "",
          "type": "bytes32"
        }
      ],
      "stateMutability": "view",
      "type": "function"
    },
    {
      "inputs": [],
      "name": "CLOCK_MODE",
      "outputs": [
        {
          "internalType": "string",
          "name": "",
          "type": "string"
        }
      ],
      "stateMutability": "view",
      "type": "function"
    },
    {
      "inputs": [],
      "name": "COUNTING_MODE",
      "outputs": [
        {
          "internalType": "string",
          "name": "",
          "type": "string"
        }
      ],
      "stateMutability": "pure",
      "type": "function"
    },
    {
      "inputs": [],
      "name": "EXTENDED_BALLOT_TYPEHASH",
      "outputs": [
        {
          "internalType": "bytes32",
          "name": "",
          "type": "bytes32"
        }
      ],
      "stateMutability": "view",
      "type": "function"
    },
    {
      "inputs": [
        {
          "internalType": "address[]",
          "name": "targets",
          "type": "address[]"
        },
        {
          "internalType": "uint256[]",
          "name": "values",
          "type": "uint256[]"
        },
        {
          "internalType": "bytes[]",
          "name": "calldatas",
          "type": "bytes[]"
        },
        {
          "internalType": "bytes32",
          "name": "descriptionHash",
          "type": "bytes32"
        }
      ],
      "name": "cancel",
      "outputs": [
        {
          "internalType": "uint256",
          "name": "",
          "type": "uint256"
        }
      ],
      "stateMutability": "nonpayable",
      "type": "function"
    },
    {
      "inputs": [
        {
          "internalType": "uint256",
          "name": "proposalId",
          "type": "uint256"
        },
        {
          "internalType": "uint8",
          "name": "support",
          "type": "uint8"
        }
      ],
      "name": "castVote",
      "outputs": [
        {
          "internalType": "uint256",
          "name": "",
          "type": "uint256"
        }
      ],
      "stateMutability": "nonpayable",
      "type": "function"
    },
    {
      "inputs": [
        {
          "internalType": "uint256",
          "name": "proposalId",
          "type": "uint256"
        },
        {
          "internalType": "uint8",
          "name": "support",
          "type": "uint8"
        },
        {
          "internalType": "address",
          "name": "voter",
          "type": "address"
        },
        {
          "internalType": "bytes",
          "name": "signature",
          "type": "bytes"
        }
      ],
      "name": "castVoteBySig",
      "outputs": [
        {
          "internalType": "uint256",
          "name": "",
          "type": "uint256"
        }
      ],
      "stateMutability": "nonpayable",
      "type": "function"
    },
    {
      "inputs": [
        {
          "internalType": "uint256",
          "name": "proposalId",
          "type": "uint256"
        },
        {
          "internalType": "uint8",
          "name": "support",
          "type": "uint8"
        },
        {
          "internalType": "string",
          "name": "reason",
          "type": "string"
        }
      ],
      "name": "castVoteWithReason",
      "outputs": [
        {
          "internalType": "uint256",
          "name": "",
          "type": "uint256"
        }
      ],
      "stateMutability": "nonpayable",
      "type": "function"
    },
    {
      "inputs": [
        {
          "internalType": "uint256",
          "name": "proposalId",
          "type": "uint256"
        },
        {
          "internalType": "uint8",
          "name": "support",
          "type": "uint8"
        },
        {
          "internalType": "string",
          "name": "reason",
          "type": "string"
        },
        {
          "internalType": "bytes",
          "name": "params",
          "type": "bytes"
        }
      ],
      "name": "castVoteWithReasonAndParams",
      "outputs": [
        {
          "internalType": "uint256",
          "name": "",
          "type": "uint256"
        }
      ],
      "stateMutability": "nonpayable",
      "type": "function"
    },
    {
      "inputs": [
        {
          "internalType": "uint256",
          "name": "proposalId",
          "type": "uint256"
        },
        {
          "internalType": "uint8",
          "name": "support",
          "type": "uint8"
        },
        {
          "internalType": "address",
          "name": "voter",
          "type": "address"
        },
        {
          "internalType": "string",
          "name": "reason",
          "type": "string"
        },
        {
          "internalType": "bytes",
          "name": "params",
          "type": "bytes"
        },
        {
          "internalType": "bytes",
          "name": "signature",
          "type": "bytes"
        }
      ],
      "name": "castVoteWithReasonAndParamsBySig",
      "outputs": [
        {
          "internalType": "uint256",
          "name": "",
          "type": "uint256"
        }
      ],
      "stateMutability": "nonpayable",
      "type": "function"
    },
    {
      "inputs": [],
      "name": "clock",
      "outputs": [
        {
          "internalType": "uint48",
          "name": "",
          "type": "uint48"
        }
      ],
      "stateMutability": "view",
      "type": "function"
    },
    {
      "inputs": [
        {
          "internalType": "contract DAICODeployer",
          "name": "deployer",
          "type": "address"
        },
        {
          "internalType": "address",
          "name": "implementation",
          "type": "address"
        },
        {
          "internalType": "bytes",
          "name": "data",
          "type": "bytes"
        }
      ],
      "name": "deployVaultWithoutGovernanceOnce",
      "outputs": [
        {
          "internalType": "address",
          "name": "",
          "type": "address"
        }
      ],
      "stateMutability": "nonpayable",
      "type": "function"
    },
    {
      "inputs": [],
      "name": "eip712Domain",
      "outputs": [
        {
          "internalType": "bytes1",
          "name": "fields",
          "type": "bytes1"
        },
        {
          "internalType": "string",
          "name": "name",
          "type": "string"
        },
        {
          "internalType": "string",
          "name": "version",
          "type": "string"
        },
        {
          "internalType": "uint256",
          "name": "chainId",
          "type": "uint256"
        },
        {
          "internalType": "address",
          "name": "verifyingContract",
          "type": "address"
        },
        {
          "internalType": "bytes32",
          "name": "salt",
          "type": "bytes32"
        },
        {
          "internalType": "uint256[]",
          "name": "extensions",
          "type": "uint256[]"
        }
      ],
      "stateMutability": "view",
      "type": "function"
    },
    {
      "inputs": [
        {
          "internalType": "address[]",
          "name": "targets",
          "type": "address[]"
        },
        {
          "internalType": "uint256[]",
          "name": "values",
          "type": "uint256[]"
        },
        {
          "internalType": "bytes[]",
          "name": "calldatas",
          "type": "bytes[]"
        },
        {
          "internalType": "bytes32",
          "name": "descriptionHash",
          "type": "bytes32"
        }
      ],
      "name": "execute",
      "outputs": [
        {
          "internalType": "uint256",
          "name": "",
          "type": "uint256"
        }
      ],
      "stateMutability": "payable",
      "type": "function"
    },
    {
      "inputs": [
        {
          "internalType": "address",
          "name": "account",
          "type": "address"
        },
        {
          "internalType": "uint256",
          "name": "timepoint",
          "type": "uint256"
        }
      ],
      "name": "getVotes",
      "outputs": [
        {
          "internalType": "uint256",
          "name": "",
          "type": "uint256"
        }
      ],
      "stateMutability": "view",
      "type": "function"
    },
    {
      "inputs": [
        {
          "internalType": "address",
          "name": "account",
          "type": "address"
        },
        {
          "internalType": "uint256",
          "name": "timepoint",
          "type": "uint256"
        },
        {
          "internalType": "bytes",
          "name": "params",
          "type": "bytes"
        }
      ],
      "name": "getVotesWithParams",
      "outputs": [
        {
          "internalType": "uint256",
          "name": "",
          "type": "uint256"
        }
      ],
      "stateMutability": "view",
      "type": "function"
    },
    {
      "inputs": [
        {
          "internalType": "uint256",
          "name": "proposalId",
          "type": "uint256"
        },
        {
          "internalType": "address",
          "name": "account",
          "type": "address"
        }
      ],
      "name": "hasVoted",
      "outputs": [
        {
          "internalType": "bool",
          "name": "",
          "type": "bool"
        }
      ],
      "stateMutability": "view",
      "type": "function"
    },
    {
      "inputs": [
        {
          "internalType": "address[]",
          "name": "targets",
          "type": "address[]"
        },
        {
          "internalType": "uint256[]",
          "name": "values",
          "type": "uint256[]"
        },
        {
          "internalType": "bytes[]",
          "name": "calldatas",
          "type": "bytes[]"
        },
        {
          "internalType": "bytes32",
          "name": "descriptionHash",
          "type": "bytes32"
        }
      ],
      "name": "hashProposal",
      "outputs": [
        {
          "internalType": "uint256",
          "name": "",
          "type": "uint256"
        }
      ],
      "stateMutability": "pure",
      "type": "function"
    },
    {
      "inputs": [
        {
          "internalType": "bytes",
          "name": "data",
          "type": "bytes"
        }
      ],
      "name": "initialize",
      "outputs": [],
      "stateMutability": "nonpayable",
      "type": "function"
    },
    {
      "inputs": [],
      "name": "name",
      "outputs": [
        {
          "internalType": "string",
          "name": "",
          "type": "string"
        }
      ],
      "stateMutability": "view",
      "type": "function"
    },
    {
      "inputs": [
        {
          "internalType": "address",
          "name": "owner",
          "type": "address"
        }
      ],
      "name": "nonces",
      "outputs": [
        {
          "internalType": "uint256",
          "name": "",
          "type": "uint256"
        }
      ],
      "stateMutability": "view",
      "type": "function"
    },
    {
      "inputs": [
        {
          "internalType": "address",
          "name": "",
          "type": "address"
        },
        {
          "internalType": "address",
          "name": "",
          "type": "address"
        },
        {
          "internalType": "uint256[]",
          "name": "",
          "type": "uint256[]"
        },
        {
          "internalType": "uint256[]",
          "name": "",
          "type": "uint256[]"
        },
        {
          "internalType": "bytes",
          "name": "",
          "type": "bytes"
        }
      ],
      "name": "onERC1155BatchReceived",
      "outputs": [
        {
          "internalType": "bytes4",
          "name": "",
          "type": "bytes4"
        }
      ],
      "stateMutability": "nonpayable",
      "type": "function"
    },
    {
      "inputs": [
        {
          "internalType": "address",
          "name": "",
          "type": "address"
        },
        {
          "internalType": "address",
          "name": "",
          "type": "address"
        },
        {
          "internalType": "uint256",
          "name": "",
          "type": "uint256"
        },
        {
          "internalType": "uint256",
          "name": "",
          "type": "uint256"
        },
        {
          "internalType": "bytes",
          "name": "",
          "type": "bytes"
        }
      ],
      "name": "onERC1155Received",
      "outputs": [
        {
          "internalType": "bytes4",
          "name": "",
          "type": "bytes4"
        }
      ],
      "stateMutability": "nonpayable",
      "type": "function"
    },
    {
      "inputs": [
        {
          "internalType": "address",
          "name": "",
          "type": "address"
        },
        {
          "internalType": "address",
          "name": "",
          "type": "address"
        },
        {
          "internalType": "uint256",
          "name": "",
          "type": "uint256"
        },
        {
          "internalType": "bytes",
          "name": "",
          "type": "bytes"
        }
      ],
      "name": "onERC721Received",
      "outputs": [
        {
          "internalType": "bytes4",
          "name": "",
          "type": "bytes4"
        }
      ],
      "stateMutability": "nonpayable",
      "type": "function"
    },
    {
      "inputs": [],
      "name": "owner",
      "outputs": [
        {
          "internalType": "address",
          "name": "",
          "type": "address"
        }
      ],
      "stateMutability": "view",
      "type": "function"
    },
    {
      "inputs": [
        {
          "internalType": "uint256",
          "name": "proposalId",
          "type": "uint256"
        }
      ],
      "name": "proposalDeadline",
      "outputs": [
        {
          "internalType": "uint256",
          "name": "",
          "type": "uint256"
        }
      ],
      "stateMutability": "view",
      "type": "function"
    },
    {
      "inputs": [
        {
          "internalType": "uint256",
          "name": "proposalId",
          "type": "uint256"
        }
      ],
      "name": "proposalEta",
      "outputs": [
        {
          "internalType": "uint256",
          "name": "",
          "type": "uint256"
        }
      ],
      "stateMutability": "view",
      "type": "function"
    },
    {
      "inputs": [
        {
          "internalType": "uint256",
          "name": "",
          "type": "uint256"
        }
      ],
      "name": "proposalNeedsQueuing",
      "outputs": [
        {
          "internalType": "bool",
          "name": "",
          "type": "bool"
        }
      ],
      "stateMutability": "view",
      "type": "function"
    },
    {
      "inputs": [
        {
          "internalType": "uint256",
          "name": "proposalId",
          "type": "uint256"
        }
      ],
      "name": "proposalProposer",
      "outputs": [
        {
          "internalType": "address",
          "name": "",
          "type": "address"
        }
      ],
      "stateMutability": "view",
      "type": "function"
    },
    {
      "inputs": [
        {
          "internalType": "uint256",
          "name": "proposalId",
          "type": "uint256"
        }
      ],
      "name": "proposalSnapshot",
      "outputs": [
        {
          "internalType": "uint256",
          "name": "",
          "type": "uint256"
        }
      ],
      "stateMutability": "view",
      "type": "function"
    },
    {
      "inputs": [],
      "name": "proposalThreshold",
      "outputs": [
        {
          "internalType": "uint256",
          "name": "",
          "type": "uint256"
        }
      ],
      "stateMutability": "view",
      "type": "function"
    },
    {
      "inputs": [
        {
          "internalType": "uint256",
          "name": "proposalId",
          "type": "uint256"
        }
      ],
      "name": "proposalVotes",
      "outputs": [
        {
          "internalType": "uint256",
          "name": "againstVotes",
          "type": "uint256"
        },
        {
          "internalType": "uint256",
          "name": "forVotes",
          "type": "uint256"
        },
        {
          "internalType": "uint256",
          "name": "abstainVotes",
          "type": "uint256"
        }
      ],
      "stateMutability": "view",
      "type": "function"
    },
    {
      "inputs": [
        {
          "internalType": "address[]",
          "name": "targets",
          "type": "address[]"
        },
        {
          "internalType": "uint256[]",
          "name": "values",
          "type": "uint256[]"
        },
        {
          "internalType": "bytes[]",
          "name": "calldatas",
          "type": "bytes[]"
        },
        {
          "internalType": "string",
          "name": "description",
          "type": "string"
        }
      ],
      "name": "propose",
      "outputs": [
        {
          "internalType": "uint256",
          "name": "",
          "type": "uint256"
        }
      ],
      "stateMutability": "nonpayable",
      "type": "function"
    },
    {
      "inputs": [
        {
          "internalType": "address[]",
          "name": "targets",
          "type": "address[]"
        },
        {
          "internalType": "uint256[]",
          "name": "values",
          "type": "uint256[]"
        },
        {
          "internalType": "bytes[]",
          "name": "calldatas",
          "type": "bytes[]"
        },
        {
          "internalType": "bytes32",
          "name": "descriptionHash",
          "type": "bytes32"
        }
      ],
      "name": "queue",
      "outputs": [
        {
          "internalType": "uint256",
          "name": "",
          "type": "uint256"
        }
      ],
      "stateMutability": "nonpayable",
      "type": "function"
    },
    {
      "inputs": [
        {
          "internalType": "uint256",
          "name": "timepoint",
          "type": "uint256"
        }
      ],
      "name": "quorum",
      "outputs": [
        {
          "internalType": "uint256",
          "name": "",
          "type": "uint256"
        }
      ],
      "stateMutability": "view",
      "type": "function"
    },
    {
      "inputs": [],
      "name": "quorumDenominator",
      "outputs": [
        {
          "internalType": "uint256",
          "name": "",
          "type": "uint256"
        }
      ],
      "stateMutability": "view",
      "type": "function"
    },
    {
      "inputs": [
        {
          "internalType": "uint256",
          "name": "timepoint",
          "type": "uint256"
        }
      ],
      "name": "quorumNumerator",
      "outputs": [
        {
          "internalType": "uint256",
          "name": "",
          "type": "uint256"
        }
      ],
      "stateMutability": "view",
      "type": "function"
    },
    {
      "inputs": [],
      "name": "quorumNumerator",
      "outputs": [
        {
          "internalType": "uint256",
          "name": "",
          "type": "uint256"
        }
      ],
      "stateMutability": "view",
      "type": "function"
    },
    {
      "inputs": [
        {
          "internalType": "address",
          "name": "target",
          "type": "address"
        },
        {
          "internalType": "uint256",
          "name": "value",
          "type": "uint256"
        },
        {
          "internalType": "bytes",
          "name": "data",
          "type": "bytes"
        }
      ],
      "name": "relay",
      "outputs": [],
      "stateMutability": "payable",
      "type": "function"
    },
    {
      "inputs": [],
      "name": "renounceOwnership",
      "outputs": [],
      "stateMutability": "nonpayable",
      "type": "function"
    },
    {
      "inputs": [
        {
          "internalType": "uint256",
          "name": "proposalId",
          "type": "uint256"
        }
      ],
      "name": "state",
      "outputs": [
        {
          "internalType": "enum IGovernor.ProposalState",
          "name": "",
          "type": "uint8"
        }
      ],
      "stateMutability": "view",
      "type": "function"
    },
    {
      "inputs": [
        {
          "internalType": "bytes4",
          "name": "interfaceId",
          "type": "bytes4"
        }
      ],
      "name": "supportsInterface",
      "outputs": [
        {
          "internalType": "bool",
          "name": "",
          "type": "bool"
        }
      ],
      "stateMutability": "view",
      "type": "function"
    },
    {
      "inputs": [],
      "name": "token",
      "outputs": [
        {
          "internalType": "contract IERC5805",
          "name": "",
          "type": "address"
        }
      ],
      "stateMutability": "view",
      "type": "function"
    },
    {
      "inputs": [
        {
          "internalType": "address",
          "name": "newOwner",
          "type": "address"
        }
      ],
      "name": "transferOwnership",
      "outputs": [],
      "stateMutability": "nonpayable",
      "type": "function"
    },
    {
      "inputs": [
        {
          "internalType": "uint256",
          "name": "newQuorumNumerator",
          "type": "uint256"
        }
      ],
      "name": "updateQuorumNumerator",
      "outputs": [],
      "stateMutability": "nonpayable",
      "type": "function"
    },
    {
      "inputs": [],
      "name": "version",
      "outputs": [
        {
          "internalType": "string",
          "name": "",
          "type": "string"
        }
      ],
      "stateMutability": "view",
      "type": "function"
    },
    {
      "inputs": [],
      "name": "version_ethsign",
      "outputs": [
        {
          "internalType": "string",
          "name": "",
          "type": "string"
        }
      ],
      "stateMutability": "pure",
      "type": "function"
    },
    {
      "inputs": [],
      "name": "votingDelay",
      "outputs": [
        {
          "internalType": "uint256",
          "name": "",
          "type": "uint256"
        }
      ],
      "stateMutability": "view",
      "type": "function"
    },
    {
      "inputs": [],
      "name": "votingPeriod",
      "outputs": [
        {
          "internalType": "uint256",
          "name": "",
          "type": "uint256"
        }
      ],
      "stateMutability": "view",
      "type": "function"
    },
    {
      "stateMutability": "payable",
      "type": "receive"
    }
  ],
  "transactionHash": "0x290b7ebea7fdedd96b15918811164c89d202feb52e2fa4741e7f4649eee747d3",
  "args": [],
  "numDeployments": 1,
  "solcInputHash": "9170c965622260e1911c255156b38628",
  "bytecode": "0x60806040523480156200001157600080fd5b506200001c62000022565b620000d6565b7ff0c57e16840df040f15088dc2f81fe391c3923bec73e23a9662efc9c229c6a00805468010000000000000000900460ff1615620000735760405163f92ee8a960e01b815260040160405180910390fd5b80546001600160401b0390811614620000d35780546001600160401b0319166001600160401b0390811782556040519081527fc7f505b2f371ae2175ee4913f4499e1f2633a7b5936321eed1cdaeb6115181d29060200160405180910390a15b50565b6143ed80620000e66000396000f3fe6080604052600436106102b25760003560e01c8063715018a611610175578063ab58fb8e116100dc578063dd4e2ba511610095578063f23a6e611161006f578063f23a6e61146109b1578063f2fde38b146109dd578063f8ce560a146109fd578063fc0c546a14610a1d57600080fd5b8063dd4e2ba514610917578063deaaa7cc1461095d578063eb9019d41461099157600080fd5b8063ab58fb8e1461083e578063b58131b014610883578063bc197c8114610898578063c01f9e37146108c4578063c28bc2fa146108e4578063c59057e4146108f757600080fd5b80638ff262e31161012e5780638ff262e31461078857806391ddadf4146107a857806397c3d334146107d45780639a802a6d146107e8578063a7713a7014610808578063a9a952941461081d57600080fd5b8063715018a6146106a15780637b3c71d3146106b65780637d5e81e2146106d65780637ecebe00146106f657806384b0196e1461074b5780638da5cb5b1461077357600080fd5b8063438596321161021957806354fd4d50116101d257806354fd4d50146105c957806356781388146105f35780635b8d0e0d146106135780635f398a141461063357806360c4247f14610653578063679100b31461067357600080fd5b8063438596321461049b578063439fab91146104f257806343d7c5ed14610512578063452115d6146105325780634bf5d7e914610552578063544ffc9c1461056757600080fd5b8063160cbed71161026b578063160cbed7146103d25780632656227d146103f25780632d63f693146104055780632fe3e261146104255780633932abb1146104595780633e4f49e61461046e57600080fd5b806301ffc9a7146102c057806302a251a3146102f557806306f3f9e61461031457806306fdde0314610334578063143489d014610356578063150b7a021461038e57600080fd5b366102bb57005b005b600080fd5b3480156102cc57600080fd5b506102e06102db3660046130fe565b610a32565b60405190151581526020015b60405180910390f35b34801561030157600080fd5b506001545b6040519081526020016102ec565b34801561032057600080fd5b506102b961032f366004613128565b610a84565b34801561034057600080fd5b50610349610a98565b6040516102ec9190613191565b34801561036257600080fd5b50610376610371366004613128565b610b3c565b6040516001600160a01b0390911681526020016102ec565b34801561039a57600080fd5b506103b96103a9366004613284565b630a85bd0160e11b949350505050565b6040516001600160e01b031990911681526020016102ec565b3480156103de57600080fd5b506103066103ed366004613450565b610b64565b610306610400366004613450565b610bbe565b34801561041157600080fd5b50610306610420366004613128565b610d05565b34801561043157600080fd5b506103067f3e83946653575f9a39005e1545185629e92736b7528ab20ca3816f315424a81181565b34801561046557600080fd5b50600054610306565b34801561047a57600080fd5b5061048e610489366004613128565b610d33565b6040516102ec9190613517565b3480156104a757600080fd5b506102e06104b6366004613525565b6000918252600080516020614378833981519152602090815260408084206001600160a01b039390931684526003909201905290205460ff1690565b3480156104fe57600080fd5b506102b961050d366004613555565b610eb1565b34801561051e57600080fd5b5061037661052d3660046135d1565b611080565b34801561053e57600080fd5b5061030661054d366004613450565b61117d565b34801561055e57600080fd5b506103496111e5565b34801561057357600080fd5b506105ae610582366004613128565b600090815260008051602061437883398151915260205260409020805460018201546002909201549092565b604080519384526020840192909252908201526060016102ec565b3480156105d557600080fd5b506040805180820190915260018152603160f81b6020820152610349565b3480156105ff57600080fd5b5061030661060e366004613646565b61128e565b34801561061f57600080fd5b5061030661062e366004613672565b6112b7565b34801561063f57600080fd5b5061030661064e36600461372c565b6113f8565b34801561065f57600080fd5b5061030661066e366004613128565b61144d565b34801561067f57600080fd5b50604080518082019091526005815264302e302e3160d81b6020820152610349565b3480156106ad57600080fd5b506102b96114fc565b3480156106c257600080fd5b506103066106d13660046137af565b611510565b3480156106e257600080fd5b506103066106f13660046137d5565b611558565b34801561070257600080fd5b50610306610711366004613889565b6001600160a01b031660009081527f5ab42ced628888259c08ac98db1eb0cf702fc1501344311d8b100cd1bfe4bb00602052604090205490565b34801561075757600080fd5b50610760611616565b6040516102ec97969594939291906138e1565b34801561077f57600080fd5b506103766116c2565b34801561079457600080fd5b506103066107a3366004613951565b6116f7565b3480156107b457600080fd5b506107bd6117ab565b60405165ffffffffffff90911681526020016102ec565b3480156107e057600080fd5b506064610306565b3480156107f457600080fd5b506103066108033660046139a2565b61181f565b34801561081457600080fd5b5061030661182c565b34801561082957600080fd5b506102e0610838366004613128565b50600090565b34801561084a57600080fd5b50610306610859366004613128565b6000908152600080516020614338833981519152602052604090206001015465ffffffffffff1690565b34801561088f57600080fd5b50600254610306565b3480156108a457600080fd5b506103b96108b33660046139fa565b63bc197c8160e01b95945050505050565b3480156108d057600080fd5b506103066108df366004613128565b611867565b6102b96108f2366004613a8d565b6118c8565b34801561090357600080fd5b50610306610912366004613450565b611948565b34801561092357600080fd5b506040805180820190915260208082527f737570706f72743d627261766f2671756f72756d3d666f722c6162737461696e90820152610349565b34801561096957600080fd5b506103067ff2aad550cf55f045cb27e9c559f9889fdfb6e6cdaa032301d6ea397784ae51d781565b34801561099d57600080fd5b506103066109ac366004613ad0565b611982565b3480156109bd57600080fd5b506103b96109cc366004613afc565b63f23a6e6160e01b95945050505050565b3480156109e957600080fd5b506102b96109f8366004613889565b6119aa565b348015610a0957600080fd5b50610306610a18366004613128565b6119b3565b348015610a2957600080fd5b50610376611a4a565b60006001600160e01b031982166332a2ad4360e11b1480610a6357506001600160e01b03198216630271189760e51b145b80610a7e57506301ffc9a760e01b6001600160e01b03198316145b92915050565b610a8c611a73565b610a9581611aba565b50565b6000805160206143988339815191528054606091908190610ab890613b64565b80601f0160208091040260200160405190810160405280929190818152602001828054610ae490613b64565b8015610b315780601f10610b0657610100808354040283529160200191610b31565b820191906000526020600020905b815481529060010190602001808311610b1457829003601f168201915b505050505091505090565b600090815260008051602061433883398151915260205260409020546001600160a01b031690565b600060008051602061439883398151915281610b8287878787611948565b9050610b9781610b926004611b71565b611b94565b506000604051634844252360e11b815260040160405180910390fd5b509695505050505050565b600060008051602061439883398151915281610bdc87878787611948565b9050610bfc81610bec6005611b71565b610bf66004611b71565b17611b94565b5060008181526001830160205260409020805460ff60f01b1916600160f01b17905530610c263090565b6001600160a01b031614610cba5760005b8751811015610cb857306001600160a01b0316888281518110610c5c57610c5c613b9e565b60200260200101516001600160a01b031603610ca857610ca8868281518110610c8757610c87613b9e565b60200260200101518051906020012084600201611bd390919063ffffffff16565b610cb181613bca565b9050610c37565b505b610cc78188888888611c44565b6040518181527f712ae1383f79ac853f8d882153778e0260ef8f03b504e2866e0593e04d2b291f906020015b60405180910390a19695505050505050565b60009081526000805160206143388339815191526020526040902054600160a01b900465ffffffffffff1690565b6000818152600080516020614338833981519152602052604081208054600080516020614398833981519152919060ff600160f01b8204811691600160f81b9004168115610d875750600795945050505050565b8015610d995750600295945050505050565b6000610da487610d05565b905080600003610dcf57604051636ad0607560e01b8152600481018890526024015b60405180910390fd5b6000610dd96117ab565b65ffffffffffff169050808210610df857506000979650505050505050565b6000610e0389611867565b9050818110610e1b5750600198975050505050505050565b610e2489611d1c565b1580610e515750600089815260008051602061437883398151915260205260409020805460019091015411155b15610e655750600398975050505050505050565b6000898152600080516020614338833981519152602052604090206001015465ffffffffffff16600003610ea25750600498975050505050505050565b50600598975050505050505050565b7ff0c57e16840df040f15088dc2f81fe391c3923bec73e23a9662efc9c229c6a008054600160401b810460ff1615906001600160401b0316600081158015610ef65750825b90506000826001600160401b03166001148015610f125750303b155b905081158015610f20575080155b15610f3e5760405163f92ee8a960e01b815260040160405180910390fd5b845467ffffffffffffffff191660011785558315610f6857845460ff60401b1916600160401b1785555b6000806000806000808b806020019051810190610f859190613c28565b6040516309ab24eb60e41b815260006004820152959b509399509197509550935091506001600160a01b03861690639ab24eb090602401602060405180830381865afa158015610fd9573d6000803e3d6000fd5b505050506040513d601f19601f82011682018060405250810190610ffd9190613c9d565b5061100786611d63565b61101085611d9b565b61101984611de4565b61102233611dec565b60009290925560015560025550508415905061107857845460ff60401b19168555604051600181527fc7f505b2f371ae2175ee4913f4499e1f2633a7b5936321eed1cdaeb6115181d29060200160405180910390a15b505050505050565b60035460009060ff16156110a6576040516282b42960e81b815260040160405180910390fd5b6003805460ff1916600117905560006110c183850185613cb6565b505050509050806001600160a01b03166110d9611a4a565b6001600160a01b0316146111005760405163936bb5ad60e01b815260040160405180910390fd5b604051631406399760e31b81526001600160a01b0387169063a031ccb89061113090889088908890600401613d15565b6020604051808303816000875af115801561114f573d6000803e3d6000fd5b505050506040513d601f19601f820116820180604052508101906111739190613d7d565b9695505050505050565b60008061118c86868686611948565b905061119c81610b926000611b71565b506111a681610b3c565b6001600160a01b0316336001600160a01b0316146111d95760405163233d98e360e01b8152336004820152602401610dc6565b61117386868686611e27565b60606111ef611a4a565b6001600160a01b0316634bf5d7e96040518163ffffffff1660e01b8152600401600060405180830381865afa92505050801561124d57506040513d6000823e601f3d908101601f1916820160405261124a9190810190613d9a565b60015b611289575060408051808201909152601d81527f6d6f64653d626c6f636b6e756d6265722666726f6d3d64656661756c74000000602082015290565b919050565b6000803390506112af84828560405180602001604052806000815250611ee9565b949350505050565b60008061137c876113767f3e83946653575f9a39005e1545185629e92736b7528ab20ca3816f315424a8118c8c8c6112ee8e611f15565b8d8d6040516112fe929190613dce565b60405180910390208c8051906020012060405160200161135b9796959493929190968752602087019590955260ff9390931660408601526001600160a01b03919091166060850152608084015260a083015260c082015260e00190565b60405160208183030381529060405280519060200120611f57565b85611f84565b9050806113a7576040516394ab6c0760e01b81526001600160a01b0388166004820152602401610dc6565b6113eb89888a89898080601f0160208091040260200160405190810160405280939291908181526020018383808284376000920191909152508b9250611fdc915050565b9998505050505050505050565b60008033905061144287828888888080601f0160208091040260200160405190810160405280939291908181526020018383808284376000920191909152508a9250611fdc915050565b979650505050505050565b7fe770710421fd2cad75ad828c61aa98f2d77d423a440b67872d0f65554148e0008054600091908282611481600184613dde565b8154811061149157611491613b9e565b6000918252602090912001805490915065ffffffffffff811690600160301b90046001600160d01b03168682116114d5576001600160d01b03169695505050505050565b6114e86114e1886120b9565b86906120f0565b6001600160d01b0316979650505050505050565b6115046121a5565b61150e60006121d7565b565b60008033905061117386828787878080601f016020809104026020016040519081016040528093929190818152602001838380828437600092019190915250611ee992505050565b6000336115658184612248565b61158d5760405163d9b3955760e01b81526001600160a01b0382166004820152602401610dc6565b60006115b482600161159d6117ab565b6115a79190613df1565b65ffffffffffff16611982565b905060006115c160025490565b9050808210156115fd57604051636121770b60e11b81526001600160a01b03841660048201526024810183905260448101829052606401610dc6565b61160a8888888887612339565b98975050505050505050565b60006060808280808381600080516020614358833981519152805490915015801561164357506001810154155b6116875760405162461bcd60e51b81526020600482015260156024820152741152540dcc4c8e88155b9a5b9a5d1a585b1a5e9959605a1b6044820152606401610dc6565b61168f61255c565b61169761259b565b60408051600080825260208201909252600f60f81b9c939b5091995046985030975095509350915050565b6000807f9016d09d72d40fdae2fd8ceac6b6234c7706214fd39c1cd1e609a0528c1993005b546001600160a01b031692915050565b600080611765846113767ff2aad550cf55f045cb27e9c559f9889fdfb6e6cdaa032301d6ea397784ae51d789898961172e8b611f15565b60408051602081019690965285019390935260ff90911660608401526001600160a01b0316608083015260a082015260c00161135b565b905080611790576040516394ab6c0760e01b81526001600160a01b0385166004820152602401610dc6565b61117386858760405180602001604052806000815250611ee9565b60006117b5611a4a565b6001600160a01b03166391ddadf46040518163ffffffff1660e01b8152600401602060405180830381865afa92505050801561180e575060408051601f3d908101601f1916820190925261180b91810190613e17565b60015b6112895761181a6125da565b905090565b60006112af8484846125e5565b60007fe770710421fd2cad75ad828c61aa98f2d77d423a440b67872d0f65554148e00061185881612662565b6001600160d01b031691505090565b60008181526000805160206143388339815191526020526040812054600080516020614398833981519152906118b990600160d01b810463ffffffff1690600160a01b900465ffffffffffff16613e3f565b65ffffffffffff169392505050565b6118d0611a73565b600080856001600160a01b03168585856040516118ee929190613dce565b60006040518083038185875af1925050503d806000811461192b576040519150601f19603f3d011682016040523d82523d6000602084013e611930565b606091505b509150915061193f828261269b565b50505050505050565b6000848484846040516020016119619493929190613ee9565b60408051601f19818403018152919052805160209091012095945050505050565b60006119a3838361199e60408051602081019091526000815290565b6125e5565b9392505050565b610a95816126b7565b600060646119c08361144d565b6119c8611a4a565b6001600160a01b0316638e539e8c856040518263ffffffff1660e01b81526004016119f591815260200190565b602060405180830381865afa158015611a12573d6000803e3d6000fd5b505050506040513d601f19601f82011682018060405250810190611a369190613c9d565b611a409190613f34565b610a7e9190613f61565b6000807f3ba4977254e415696610a40ebf2258dbfa0ec6a2ff64e84bfe715ff16977cc006116e7565b600080516020614398833981519152303314610a95576040516347096e4760e01b8152336004820152602401610dc6565b80611ab1836002016126bf565b03611aa4575050565b7fe770710421fd2cad75ad828c61aa98f2d77d423a440b67872d0f65554148e000606480831115611b085760405163243e544560e01b81526004810184905260248101829052604401610dc6565b6000611b1261182c565b9050611b30611b1f6117ab565b611b288661273d565b859190612771565b505060408051828152602081018690527f0553476bf02ef2726e8ce5ced78d63e26e602e4a2257b1f559418e24b4633997910160405180910390a150505050565b6000816007811115611b8557611b856134df565b600160ff919091161b92915050565b600080611ba084610d33565b9050600083611bae83611b71565b16036119a3578381846040516331b75e4d60e01b8152600401610dc693929190613f83565b81546001600160801b03600160801b820481169181166001830190911603611c0e57604051638acb5f2760e01b815260040160405180910390fd5b6001600160801b03808216600090815260018086016020526040909120939093558354919092018216600160801b029116179055565b60005b845181101561107857600080868381518110611c6557611c65613b9e565b60200260200101516001600160a01b0316868481518110611c8857611c88613b9e565b6020026020010151868581518110611ca257611ca2613b9e565b6020026020010151604051611cb79190613fa5565b60006040518083038185875af1925050503d8060008114611cf4576040519150601f19603f3d011682016040523d82523d6000602084013e611cf9565b606091505b5091509150611d08828261269b565b50505080611d1590613bca565b9050611c47565b600081815260008051602061437883398151915260208190526040822060028101546001820154611d4d9190613fc1565b611d59610a1886610d05565b1115949350505050565b611d6b61278c565b611d9281611d8d6040805180820190915260018152603160f81b602082015290565b6127d5565b610a9581612836565b611da361278c565b7f3ba4977254e415696610a40ebf2258dbfa0ec6a2ff64e84bfe715ff16977cc0080546001600160a01b0319166001600160a01b0392909216919091179055565b610a8c61278c565b611df461278c565b6001600160a01b038116611e1e57604051631e4fbdf760e01b815260006004820152602401610dc6565b610a95816121d7565b600060008051602061439883398151915281611e4587878787611948565b9050611e9381611e556007611b71565b611e5f6006611b71565b611e696002611b71565b6001611e76600782613fd4565b611e819060026140d1565b611e8b9190613dde565b181818611b94565b5060008181526001830160205260409081902080546001600160f81b0316600160f81b179055517f789cf55be980739dad1d0699b93b58e806b51c9d96619bfa8fe0a28abaa7b30c90610cf39083815260200190565b6000611f0c85858585611f0760408051602081019091526000815290565b611fdc565b95945050505050565b6001600160a01b031660009081527f5ab42ced628888259c08ac98db1eb0cf702fc1501344311d8b100cd1bfe4bb006020526040902080546001810190915590565b6000610a7e611f6461285d565b8360405161190160f01b8152600281019290925260228201526042902090565b6000806000611f938585612867565b5090925090506000816003811115611fad57611fad6134df565b148015611fcb5750856001600160a01b0316826001600160a01b0316145b8061117357506111738686866128b4565b6000611fec86610b926001611b71565b50600061200286611ffc89610d05565b856125e5565b9050612011878787848761298f565b825160000361206657856001600160a01b03167fb8e138887d0aa13bab447e82de9d5c1777041ecd21ca36ba824ff1e6c07ddda48887848860405161205994939291906140e0565b60405180910390a2611173565b856001600160a01b03167fe2babfbac5889a709b63bb7f598b324e08bc5a4fb9ec647fb3cbc9ec07eb871288878488886040516120a7959493929190614108565b60405180910390a29695505050505050565b600065ffffffffffff8211156120ec576040516306dfcc6560e41b81526030600482015260248101839052604401610dc6565b5090565b81546000908181600581111561214f57600061210b84612a98565b6121159085613dde565b60008881526020902090915081015465ffffffffffff908116908716101561213f5780915061214d565b61214a816001613fc1565b92505b505b600061215d87878585612b80565b905080156121985761218287612174600184613dde565b600091825260209091200190565b54600160301b90046001600160d01b0316611442565b6000979650505050505050565b336121ae6116c2565b6001600160a01b03161461150e5760405163118cdaa760e01b8152336004820152602401610dc6565b7f9016d09d72d40fdae2fd8ceac6b6234c7706214fd39c1cd1e609a0528c19930080546001600160a01b031981166001600160a01b03848116918217845560405192169182907f8be0079c531659141344cd1fd0a4f28419497f9722a3daafe3b4186f6b6457e090600090a3505050565b80516000906034811015612260576001915050610a7e565b82810160131901516001600160a01b031981166b046e0e4dee0dee6cae47a60f60a31b1461229357600192505050610a7e565b6000806122a1602885613dde565b90505b83811015612318576000806122d88884815181106122c4576122c4613b9e565b01602001516001600160f81b031916612be2565b91509150816122f05760019650505050505050610a7e565b8060ff166004856001600160a01b0316901b17935050508061231190613bca565b90506122a4565b50856001600160a01b0316816001600160a01b031614935050505092915050565b60008060008051602061439883398151915290506123608787878780519060200120611948565b91508551875114158061237557508451875114155b8061237f57508651155b156123b457865185518751604051630447b05d60e41b8152600481019390935260248301919091526044820152606401610dc6565b6000828152600182016020526040902054600160a01b900465ffffffffffff161561240157816123e383610d33565b6040516331b75e4d60e01b8152610dc6929190600090600401613f83565b6000805461240d6117ab565b65ffffffffffff1661241f9190613fc1565b9050600061242c60015490565b6000858152600185016020526040902080546001600160a01b0319166001600160a01b038816178155909150612461836120b9565b815465ffffffffffff91909116600160a01b0265ffffffffffff60a01b1990911617815561248e82612c74565b815463ffffffff91909116600160d01b0263ffffffff60d01b1990911617815589517f7d84a6263ae0d98d3329bd7b46bb4e8d6f98cd35a7adb45c274c8b7fd5ebd5e090869088908d908d906001600160401b038111156124f1576124f16131b9565b60405190808252806020026020018201604052801561252457816020015b606081526020019060019003908161250f5790505b508d896125318a82613fc1565b8f60405161254799989796959493929190614142565b60405180910390a15050505095945050505050565b7fa16a46d94261c7517cc8ff89f61c0ce93598e3c849801011dee649a6a557d102805460609160008051602061435883398151915291610ab890613b64565b7fa16a46d94261c7517cc8ff89f61c0ce93598e3c849801011dee649a6a557d103805460609160008051602061435883398151915291610ab890613b64565b600061181a436120b9565b60006125ef611a4a565b604051630748d63560e31b81526001600160a01b038681166004830152602482018690529190911690633a46b1a890604401602060405180830381865afa15801561263e573d6000803e3d6000fd5b505050506040513d601f19601f820116820180604052508101906112af9190613c9d565b805460009080156126925761267c83612174600184613dde565b54600160301b90046001600160d01b03166119a3565b60009392505050565b6060826126b0576126ab82612ca5565b610a7e565b5080610a7e565b611df46121a5565b80546000906001600160801b0380821691600160801b90041681036126f7576040516375e52f4f60e01b815260040160405180910390fd5b6001600160801b038181166000908152600185810160205260408220805492905585546fffffffffffffffffffffffffffffffff19169301909116919091179092555090565b60006001600160d01b038211156120ec576040516306dfcc6560e41b815260d0600482015260248101839052604401610dc6565b60008061277f858585612cce565b915091505b935093915050565b7ff0c57e16840df040f15088dc2f81fe391c3923bec73e23a9662efc9c229c6a0054600160401b900460ff1661150e57604051631afcd79f60e31b815260040160405180910390fd5b6127dd61278c565b6000805160206143588339815191527fa16a46d94261c7517cc8ff89f61c0ce93598e3c849801011dee649a6a557d102612817848261425f565b5060038101612826838261425f565b5060008082556001909101555050565b61283e61278c565b60008051602061439883398151915280612858838261425f565b505050565b600061181a612e48565b600080600083516041036128a15760208401516040850151606086015160001a61289388828585612ebc565b9550955095505050506128ad565b50508151600091506002905b9250925092565b6000806000856001600160a01b031685856040516024016128d692919061431e565b60408051601f198184030181529181526020820180516001600160e01b0316630b135d3f60e11b1790525161290b9190613fa5565b600060405180830381855afa9150503d8060008114612946576040519150601f19603f3d011682016040523d82523d6000602084013e61294b565b606091505b509150915081801561295f57506020815110155b801561117357508051630b135d3f60e11b906129849083016020908101908401613c9d565b149695505050505050565b6000858152600080516020614378833981519152602081815260408084206001600160a01b0389168552600381019092529092205490919060ff16156129f3576040516371c6af4960e01b81526001600160a01b0387166004820152602401610dc6565b6001600160a01b03861660009081526003820160205260409020805460ff1916600117905560ff8516612a3f5783816000016000828254612a349190613fc1565b9091555061193f9050565b60001960ff861601612a5f5783816001016000828254612a349190613fc1565b60011960ff861601612a7f5783816002016000828254612a349190613fc1565b6040516303599be160e11b815260040160405180910390fd5b600081600003612aaa57506000919050565b60006001612ab784612f8b565b901c6001901b90506001818481612ad057612ad0613f4b565b048201901c90506001818481612ae857612ae8613f4b565b048201901c90506001818481612b0057612b00613f4b565b048201901c90506001818481612b1857612b18613f4b565b048201901c90506001818481612b3057612b30613f4b565b048201901c90506001818481612b4857612b48613f4b565b048201901c90506001818481612b6057612b60613f4b565b048201901c90506119a381828581612b7a57612b7a613f4b565b0461301f565b60005b81831015612bda576000612b978484613035565b60008781526020902090915065ffffffffffff86169082015465ffffffffffff161115612bc657809250612bd4565b612bd1816001613fc1565b93505b50612b83565b509392505050565b60008060f883901c602f81118015612bfd5750603a8160ff16105b15612c1257600194602f199091019350915050565b8060ff166040108015612c28575060478160ff16105b15612c3d576001946036199091019350915050565b8060ff166060108015612c53575060678160ff16105b15612c68576001946056199091019350915050565b50600093849350915050565b600063ffffffff8211156120ec576040516306dfcc6560e41b81526020600482015260248101839052604401610dc6565b805115612cb55780518082602001fd5b604051630a12f52160e11b815260040160405180910390fd5b825460009081908015612ded576000612cec87612174600185613dde565b60408051808201909152905465ffffffffffff808216808452600160301b9092046001600160d01b031660208401529192509087161015612d4057604051632520601d60e01b815260040160405180910390fd5b805165ffffffffffff808816911603612d8c5784612d6388612174600186613dde565b80546001600160d01b0392909216600160301b0265ffffffffffff909216919091179055612ddd565b6040805180820190915265ffffffffffff80881682526001600160d01b0380881660208085019182528b54600181018d5560008d81529190912094519151909216600160301b029216919091179101555b6020015192508391506127849050565b50506040805180820190915265ffffffffffff80851682526001600160d01b0380851660208085019182528854600181018a5560008a815291822095519251909316600160301b029190931617920191909155905081612784565b60007f8b73c3c69bb8fe3d512ecc4cf759cc79239f7b179b0ffacaa9a75d522b39400f612e73613050565b612e7b6130ba565b60408051602081019490945283019190915260608201524660808201523060a082015260c00160405160208183030381529060405280519060200120905090565b600080807f7fffffffffffffffffffffffffffffff5d576e7357a4501ddfe92f46681b20a0841115612ef75750600091506003905082612f81565b604080516000808252602082018084528a905260ff891692820192909252606081018790526080810186905260019060a0016020604051602081039080840390855afa158015612f4b573d6000803e3d6000fd5b5050604051601f1901519150506001600160a01b038116612f7757506000925060019150829050612f81565b9250600091508190505b9450945094915050565b600080608083901c15612fa057608092831c92015b604083901c15612fb257604092831c92015b602083901c15612fc457602092831c92015b601083901c15612fd657601092831c92015b600883901c15612fe857600892831c92015b600483901c15612ffa57600492831c92015b600283901c1561300c57600292831c92015b600183901c15610a7e5760010192915050565b600081831061302e57816119a3565b5090919050565b60006130446002848418613f61565b6119a390848416613fc1565b60006000805160206143588339815191528161306a61255c565b80519091501561308257805160209091012092915050565b81548015613091579392505050565b7fc5d2460186f7233c927e7db2dcc703c0e500b653ca82273b7bfad8045d85a470935050505090565b6000600080516020614358833981519152816130d461259b565b8051909150156130ec57805160209091012092915050565b60018201548015613091579392505050565b60006020828403121561311057600080fd5b81356001600160e01b0319811681146119a357600080fd5b60006020828403121561313a57600080fd5b5035919050565b60005b8381101561315c578181015183820152602001613144565b50506000910152565b6000815180845261317d816020860160208601613141565b601f01601f19169290920160200192915050565b6020815260006119a36020830184613165565b6001600160a01b0381168114610a9557600080fd5b634e487b7160e01b600052604160045260246000fd5b604051601f8201601f191681016001600160401b03811182821017156131f7576131f76131b9565b604052919050565b60006001600160401b03821115613218576132186131b9565b50601f01601f191660200190565b6000613239613234846131ff565b6131cf565b905082815283838301111561324d57600080fd5b828260208301376000602084830101529392505050565b600082601f83011261327557600080fd5b6119a383833560208501613226565b6000806000806080858703121561329a57600080fd5b84356132a5816131a4565b935060208501356132b5816131a4565b92506040850135915060608501356001600160401b038111156132d757600080fd5b6132e387828801613264565b91505092959194509250565b60006001600160401b03821115613308576133086131b9565b5060051b60200190565b600082601f83011261332357600080fd5b81356020613333613234836132ef565b82815260059290921b8401810191818101908684111561335257600080fd5b8286015b84811015610bb3578035613369816131a4565b8352918301918301613356565b600082601f83011261338757600080fd5b81356020613397613234836132ef565b82815260059290921b840181019181810190868411156133b657600080fd5b8286015b84811015610bb357803583529183019183016133ba565b600082601f8301126133e257600080fd5b813560206133f2613234836132ef565b82815260059290921b8401810191818101908684111561341157600080fd5b8286015b84811015610bb35780356001600160401b038111156134345760008081fd5b6134428986838b0101613264565b845250918301918301613415565b6000806000806080858703121561346657600080fd5b84356001600160401b038082111561347d57600080fd5b61348988838901613312565b9550602087013591508082111561349f57600080fd5b6134ab88838901613376565b945060408701359150808211156134c157600080fd5b506134ce878288016133d1565b949793965093946060013593505050565b634e487b7160e01b600052602160045260246000fd5b6008811061351357634e487b7160e01b600052602160045260246000fd5b9052565b60208101610a7e82846134f5565b6000806040838503121561353857600080fd5b82359150602083013561354a816131a4565b809150509250929050565b60006020828403121561356757600080fd5b81356001600160401b0381111561357d57600080fd5b6112af84828501613264565b60008083601f84011261359b57600080fd5b5081356001600160401b038111156135b257600080fd5b6020830191508360208285010111156135ca57600080fd5b9250929050565b600080600080606085870312156135e757600080fd5b84356135f2816131a4565b93506020850135613602816131a4565b925060408501356001600160401b0381111561361d57600080fd5b61362987828801613589565b95989497509550505050565b803560ff8116811461128957600080fd5b6000806040838503121561365957600080fd5b8235915061366960208401613635565b90509250929050565b600080600080600080600060c0888a03121561368d57600080fd5b8735965061369d60208901613635565b955060408801356136ad816131a4565b945060608801356001600160401b03808211156136c957600080fd5b6136d58b838c01613589565b909650945060808a01359150808211156136ee57600080fd5b6136fa8b838c01613264565b935060a08a013591508082111561371057600080fd5b5061371d8a828b01613264565b91505092959891949750929550565b60008060008060006080868803121561374457600080fd5b8535945061375460208701613635565b935060408601356001600160401b038082111561377057600080fd5b61377c89838a01613589565b9095509350606088013591508082111561379557600080fd5b506137a288828901613264565b9150509295509295909350565b600080600080606085870312156137c557600080fd5b8435935061360260208601613635565b600080600080608085870312156137eb57600080fd5b84356001600160401b038082111561380257600080fd5b61380e88838901613312565b9550602087013591508082111561382457600080fd5b61383088838901613376565b9450604087013591508082111561384657600080fd5b613852888389016133d1565b9350606087013591508082111561386857600080fd5b508501601f8101871361387a57600080fd5b6132e387823560208401613226565b60006020828403121561389b57600080fd5b81356119a3816131a4565b600081518084526020808501945080840160005b838110156138d6578151875295820195908201906001016138ba565b509495945050505050565b60ff60f81b8816815260e06020820152600061390060e0830189613165565b82810360408401526139128189613165565b606084018890526001600160a01b038716608085015260a0840186905283810360c0850152905061394381856138a6565b9a9950505050505050505050565b6000806000806080858703121561396757600080fd5b8435935061397760208601613635565b92506040850135613987816131a4565b915060608501356001600160401b038111156132d757600080fd5b6000806000606084860312156139b757600080fd5b83356139c2816131a4565b92506020840135915060408401356001600160401b038111156139e457600080fd5b6139f086828701613264565b9150509250925092565b600080600080600060a08688031215613a1257600080fd5b8535613a1d816131a4565b94506020860135613a2d816131a4565b935060408601356001600160401b0380821115613a4957600080fd5b613a5589838a01613376565b94506060880135915080821115613a6b57600080fd5b613a7789838a01613376565b9350608088013591508082111561379557600080fd5b60008060008060608587031215613aa357600080fd5b8435613aae816131a4565b93506020850135925060408501356001600160401b0381111561361d57600080fd5b60008060408385031215613ae357600080fd5b8235613aee816131a4565b946020939093013593505050565b600080600080600060a08688031215613b1457600080fd5b8535613b1f816131a4565b94506020860135613b2f816131a4565b9350604086013592506060860135915060808601356001600160401b03811115613b5857600080fd5b6137a288828901613264565b600181811c90821680613b7857607f821691505b602082108103613b9857634e487b7160e01b600052602260045260246000fd5b50919050565b634e487b7160e01b600052603260045260246000fd5b634e487b7160e01b600052601160045260246000fd5b600060018201613bdc57613bdc613bb4565b5060010190565b600082601f830112613bf457600080fd5b8151613c02613234826131ff565b818152846020838601011115613c1757600080fd5b6112af826020830160208701613141565b60008060008060008060c08789031215613c4157600080fd5b86516001600160401b03811115613c5757600080fd5b613c6389828a01613be3565b9650506020870151613c74816131a4565b6040880151606089015160808a015160a0909a0151989b929a5090989097909650945092505050565b600060208284031215613caf57600080fd5b5051919050565b600080600080600060a08688031215613cce57600080fd5b8535613cd9816131a4565b94506020860135613ce9816131a4565b935060408601359250606086013591506080860135613d07816131a4565b809150509295509295909350565b6001600160a01b03841681526060602082018190528101829052818360808301376000608083830101526000601f19601f8401168201608083820301604084015260086080820152671250d3d5985d5b1d60c21b60a082015260c08101915050949350505050565b600060208284031215613d8f57600080fd5b81516119a3816131a4565b600060208284031215613dac57600080fd5b81516001600160401b03811115613dc257600080fd5b6112af84828501613be3565b8183823760009101908152919050565b81810381811115610a7e57610a7e613bb4565b65ffffffffffff828116828216039080821115613e1057613e10613bb4565b5092915050565b600060208284031215613e2957600080fd5b815165ffffffffffff811681146119a357600080fd5b65ffffffffffff818116838216019080821115613e1057613e10613bb4565b600081518084526020808501945080840160005b838110156138d65781516001600160a01b031687529582019590820190600101613e72565b6000815180845260208085019450848260051b860182860160005b85811015613edc578383038952613eca838351613165565b98850198925090840190600101613eb2565b5090979650505050505050565b608081526000613efc6080830187613e5e565b8281036020840152613f0e81876138a6565b90508281036040840152613f228186613e97565b91505082606083015295945050505050565b8082028115828204841417610a7e57610a7e613bb4565b634e487b7160e01b600052601260045260246000fd5b600082613f7e57634e487b7160e01b600052601260045260246000fd5b500490565b83815260608101613f9760208301856134f5565b826040830152949350505050565b60008251613fb7818460208701613141565b9190910192915050565b80820180821115610a7e57610a7e613bb4565b60ff8181168382160190811115610a7e57610a7e613bb4565b600181815b8085111561402857816000190482111561400e5761400e613bb4565b8085161561401b57918102915b93841c9390800290613ff2565b509250929050565b60008261403f57506001610a7e565b8161404c57506000610a7e565b8160018114614062576002811461406c57614088565b6001915050610a7e565b60ff84111561407d5761407d613bb4565b50506001821b610a7e565b5060208310610133831016604e8410600b84101617156140ab575081810a610a7e565b6140b58383613fed565b80600019048211156140c9576140c9613bb4565b029392505050565b60006119a360ff841683614030565b84815260ff841660208201528260408201526080606082015260006111736080830184613165565b85815260ff8516602082015283604082015260a06060820152600061413060a0830185613165565b828103608084015261160a8185613165565b60006101208b8352602060018060a01b038c168185015281604085015261416b8285018c613e5e565b9150838203606085015261417f828b6138a6565b915083820360808501528189518084528284019150828160051b850101838c0160005b838110156141d057601f198784030185526141be838351613165565b948601949250908501906001016141a2565b505086810360a08801526141e4818c613e97565b9450505050508560c08401528460e08401528281036101008401526142098185613165565b9c9b505050505050505050505050565b601f82111561285857600081815260208120601f850160051c810160208610156142405750805b601f850160051c820191505b818110156110785782815560010161424c565b81516001600160401b03811115614278576142786131b9565b61428c816142868454613b64565b84614219565b602080601f8311600181146142c157600084156142a95750858301515b600019600386901b1c1916600185901b178555611078565b600085815260208120601f198616915b828110156142f0578886015182559484019460019091019084016142d1565b508582101561430e5787850151600019600388901b60f8161c191681555b5050505050600190811b01905550565b8281526040602082015260006112af604083018461316556fe7c712897014dbe49c045ef1299aa2d5f9e67e48eea4403efa21f1e0f3ac0cb01a16a46d94261c7517cc8ff89f61c0ce93598e3c849801011dee649a6a557d100a1cefa0f43667ef127a258e673c94202a79b656e62899531c4376d87a7f398007c712897014dbe49c045ef1299aa2d5f9e67e48eea4403efa21f1e0f3ac0cb00a2646970667358221220ded922539971ef842fc437a5ad38956f655811d48f075f95b59839d035598c8164736f6c63430008140033",
  "devdoc": {
    "errors": {
      "CheckpointUnorderedInsertion()": [
        {
          "details": "A value was attempted to be inserted on a past checkpoint."
        }
      ],
      "FailedInnerCall()": [
        {
          "details": "A call to an address target failed. The target may have reverted."
        }
      ],
      "GovernorAlreadyCastVote(address)": [
        {
          "details": "The vote was already cast."
        }
      ],
      "GovernorAlreadyQueuedProposal(uint256)": [
        {
          "details": "The proposal has already been queued."
        }
      ],
      "GovernorDisabledDeposit()": [
        {
          "details": "Token deposits are disabled in this contract."
        }
      ],
      "GovernorInsufficientProposerVotes(address,uint256,uint256)": [
        {
          "details": "The `proposer` does not have the required votes to create a proposal."
        }
      ],
      "GovernorInvalidProposalLength(uint256,uint256,uint256)": [
        {
          "details": "Empty proposal or a mismatch between the parameters length for a proposal call."
        }
      ],
      "GovernorInvalidQuorumFraction(uint256,uint256)": [
        {
          "details": "The quorum set is not a valid fraction."
        }
      ],
      "GovernorInvalidSignature(address)": [
        {
          "details": "The provided signature is not valid for the expected `voter`. If the `voter` is a contract, the signature is not valid using {IERC1271-isValidSignature}."
        }
      ],
      "GovernorInvalidVoteType()": [
        {
          "details": "The vote type used is not valid for the corresponding counting module."
        }
      ],
      "GovernorInvalidVotingPeriod(uint256)": [
        {
          "details": "The voting period set is not a valid period."
        }
      ],
      "GovernorNonexistentProposal(uint256)": [
        {
          "details": "The `proposalId` doesn't exist."
        }
      ],
      "GovernorNotQueuedProposal(uint256)": [
        {
          "details": "The proposal hasn't been queued yet."
        }
      ],
      "GovernorOnlyExecutor(address)": [
        {
          "details": "The `account` is not the governance executor."
        }
      ],
      "GovernorOnlyProposer(address)": [
        {
          "details": "The `account` is not a proposer."
        }
      ],
      "GovernorQueueNotImplemented()": [
        {
          "details": "Queue operation is not implemented for this governor. Execute should be called directly."
        }
      ],
      "GovernorRestrictedProposer(address)": [
        {
          "details": "The `proposer` is not allowed to create a proposal."
        }
      ],
      "GovernorUnexpectedProposalState(uint256,uint8,bytes32)": [
        {
          "details": "The current state of a proposal is not the required for performing an operation. The `expectedStates` is a bitmap with the bits enabled for each ProposalState enum position counting from right to left. NOTE: If `expectedState` is `bytes32(0)`, the proposal is expected to not be in any state (i.e. not exist). This is the case when a proposal that is expected to be unset is already initiated (the proposal is duplicated). See {Governor-_encodeStateBitmap}."
        }
      ],
      "InvalidAccountNonce(address,uint256)": [
        {
          "details": "The nonce used for an `account` is not the expected current nonce."
        }
      ],
      "InvalidInitialization()": [
        {
          "details": "The contract is already initialized."
        }
      ],
      "NotInitializing()": [
        {
          "details": "The contract is not initializing."
        }
      ],
      "OwnableInvalidOwner(address)": [
        {
          "details": "The owner is not a valid owner account. (eg. `address(0)`)"
        }
      ],
      "OwnableUnauthorizedAccount(address)": [
        {
          "details": "The caller account is not authorized to perform an operation."
        }
      ],
      "QueueEmpty()": [
        {
          "details": "An operation (e.g. {front}) couldn't be completed due to the queue being empty."
        }
      ],
      "QueueFull()": [
        {
          "details": "A push operation couldn't be completed due to the queue being full."
        }
      ],
      "SafeCastOverflowedUintDowncast(uint8,uint256)": [
        {
          "details": "Value doesn't fit in an uint of `bits` size."
        }
      ]
    },
    "events": {
      "EIP712DomainChanged()": {
        "details": "MAY be emitted to signal that the domain could have changed."
      },
      "Initialized(uint64)": {
        "details": "Triggered when the contract has been initialized or reinitialized."
      },
      "ProposalCanceled(uint256)": {
        "details": "Emitted when a proposal is canceled."
      },
      "ProposalCreated(uint256,address,address[],uint256[],string[],bytes[],uint256,uint256,string)": {
        "details": "Emitted when a proposal is created."
      },
      "ProposalExecuted(uint256)": {
        "details": "Emitted when a proposal is executed."
      },
      "ProposalQueued(uint256,uint256)": {
        "details": "Emitted when a proposal is queued."
      },
      "VoteCast(address,uint256,uint8,uint256,string)": {
        "details": "Emitted when a vote is cast without params. Note: `support` values should be seen as buckets. Their interpretation depends on the voting module used."
      },
      "VoteCastWithParams(address,uint256,uint8,uint256,string,bytes)": {
        "details": "Emitted when a vote is cast with params. Note: `support` values should be seen as buckets. Their interpretation depends on the voting module used. `params` are additional encoded parameters. Their interpepretation also depends on the voting module used."
      }
    },
    "kind": "dev",
    "methods": {
      "CLOCK_MODE()": {
        "details": "Machine-readable description of the clock as specified in EIP-6372."
      },
      "COUNTING_MODE()": {
        "details": "See {IGovernor-COUNTING_MODE}."
      },
      "cancel(address[],uint256[],bytes[],bytes32)": {
        "details": "See {IGovernor-cancel}."
      },
      "castVote(uint256,uint8)": {
        "details": "See {IGovernor-castVote}."
      },
      "castVoteBySig(uint256,uint8,address,bytes)": {
        "details": "See {IGovernor-castVoteBySig}."
      },
      "castVoteWithReason(uint256,uint8,string)": {
        "details": "See {IGovernor-castVoteWithReason}."
      },
      "castVoteWithReasonAndParams(uint256,uint8,string,bytes)": {
        "details": "See {IGovernor-castVoteWithReasonAndParams}."
      },
      "castVoteWithReasonAndParamsBySig(uint256,uint8,address,string,bytes,bytes)": {
        "details": "See {IGovernor-castVoteWithReasonAndParamsBySig}."
      },
      "clock()": {
        "details": "Clock (as specified in EIP-6372) is set to match the token's clock. Fallback to block numbers if the token does not implement EIP-6372."
      },
      "eip712Domain()": {
        "details": "See {IERC-5267}."
      },
      "execute(address[],uint256[],bytes[],bytes32)": {
        "details": "See {IGovernor-execute}."
      },
      "getVotes(address,uint256)": {
        "details": "See {IGovernor-getVotes}."
      },
      "getVotesWithParams(address,uint256,bytes)": {
        "details": "See {IGovernor-getVotesWithParams}."
      },
      "hasVoted(uint256,address)": {
        "details": "See {IGovernor-hasVoted}."
      },
      "hashProposal(address[],uint256[],bytes[],bytes32)": {
        "details": "See {IGovernor-hashProposal}. The proposal id is produced by hashing the ABI encoded `targets` array, the `values` array, the `calldatas` array and the descriptionHash (bytes32 which itself is the keccak256 hash of the description string). This proposal id can be produced from the proposal data which is part of the {ProposalCreated} event. It can even be computed in advance, before the proposal is submitted. Note that the chainId and the governor address are not part of the proposal id computation. Consequently, the same proposal (with same operation and same description) will have the same id if submitted on multiple governors across multiple networks. This also means that in order to execute the same operation twice (on the same governor) the proposer will have to change the description in order to avoid proposal id conflicts."
      },
      "name()": {
        "details": "See {IGovernor-name}."
      },
      "nonces(address)": {
        "details": "Returns the next unused nonce for an address."
      },
      "onERC1155BatchReceived(address,address,uint256[],uint256[],bytes)": {
        "details": "See {IERC1155Receiver-onERC1155BatchReceived}. Receiving tokens is disabled if the governance executor is other than the governor itself (eg. when using with a timelock)."
      },
      "onERC1155Received(address,address,uint256,uint256,bytes)": {
        "details": "See {IERC1155Receiver-onERC1155Received}. Receiving tokens is disabled if the governance executor is other than the governor itself (eg. when using with a timelock)."
      },
      "onERC721Received(address,address,uint256,bytes)": {
        "details": "See {IERC721Receiver-onERC721Received}. Receiving tokens is disabled if the governance executor is other than the governor itself (eg. when using with a timelock)."
      },
      "owner()": {
        "details": "Returns the address of the current owner."
      },
      "proposalDeadline(uint256)": {
        "details": "See {IGovernor-proposalDeadline}."
      },
      "proposalEta(uint256)": {
        "details": "See {IGovernor-proposalEta}."
      },
      "proposalNeedsQueuing(uint256)": {
        "details": "See {IGovernor-proposalNeedsQueuing}."
      },
      "proposalProposer(uint256)": {
        "details": "See {IGovernor-proposalProposer}."
      },
      "proposalSnapshot(uint256)": {
        "details": "See {IGovernor-proposalSnapshot}."
      },
      "proposalThreshold()": {
        "details": "See {IGovernor-proposalThreshold}."
      },
      "proposalVotes(uint256)": {
        "details": "Accessor to the internal vote counts."
      },
      "propose(address[],uint256[],bytes[],string)": {
        "details": "See {IGovernor-propose}. This function has opt-in frontrunning protection, described in {_isValidDescriptionForProposer}."
      },
      "queue(address[],uint256[],bytes[],bytes32)": {
        "details": "See {IGovernor-queue}."
      },
      "quorum(uint256)": {
        "details": "Returns the quorum for a timepoint, in terms of number of votes: `supply * numerator / denominator`."
      },
      "quorumDenominator()": {
        "details": "Returns the quorum denominator. Defaults to 100, but may be overridden."
      },
      "quorumNumerator()": {
        "details": "Returns the current quorum numerator. See {quorumDenominator}."
      },
      "quorumNumerator(uint256)": {
        "details": "Returns the quorum numerator at a specific timepoint. See {quorumDenominator}."
      },
      "relay(address,uint256,bytes)": {
        "details": "Relays a transaction or function call to an arbitrary target. In cases where the governance executor is some contract other than the governor itself, like when using a timelock, this function can be invoked in a governance proposal to recover tokens or Ether that was sent to the governor contract by mistake. Note that if the executor is simply the governor itself, use of `relay` is redundant."
      },
      "renounceOwnership()": {
        "details": "Leaves the contract without owner. It will not be possible to call `onlyOwner` functions. Can only be called by the current owner. NOTE: Renouncing ownership will leave the contract without an owner, thereby disabling any functionality that is only available to the owner."
      },
      "state(uint256)": {
        "details": "See {IGovernor-state}."
      },
      "supportsInterface(bytes4)": {
        "details": "See {IERC165-supportsInterface}."
      },
      "token()": {
        "details": "The token that voting power is sourced from."
      },
      "updateQuorumNumerator(uint256)": {
        "details": "Changes the quorum numerator. Emits a {QuorumNumeratorUpdated} event. Requirements: - Must be called through a governance proposal. - New numerator must be smaller or equal to the denominator."
      },
      "version()": {
        "details": "See {IGovernor-version}."
      },
      "votingDelay()": {
        "details": "Delay, between the proposal is created and the vote starts. The unit this duration is expressed in depends on the clock (see EIP-6372) this contract uses. This can be increased to leave time for users to buy voting power, or delegate it, before the voting of a proposal starts. NOTE: While this interface returns a uint256, timepoints are stored as uint48 following the ERC-6372 clock type. Consequently this value must fit in a uint48 (when added to the current clock). See {IERC6372-clock}."
      },
      "votingPeriod()": {
        "details": "Delay between the vote start and vote end. The unit this duration is expressed in depends on the clock (see EIP-6372) this contract uses. NOTE: The {votingDelay} can delay the start of the vote. This must be considered when setting the voting duration compared to the voting delay. NOTE: This value is stored when the proposal is submitted so that possible changes to the value do not affect proposals that have already been submitted. The type used to save it is a uint32. Consequently, while this interface returns a uint256, the value it returns should fit in a uint32."
      }
    },
    "version": 1
  },
  "userdoc": {
    "kind": "user",
    "methods": {
      "votingDelay()": {
        "notice": "module:user-config"
      },
      "votingPeriod()": {
        "notice": "module:user-config"
      }
    },
    "version": 1
  },
  "storageLayout": {
    "storage": [
      {
        "astId": 10535,
        "contract": "contracts/extensions/DAOGovernorDeployableOnceWithoutGovernance.sol:DAOGovernorDeployableOnceWithoutGovernance",
        "label": "_votingDelay",
        "offset": 0,
        "slot": "0",
        "type": "t_uint256"
      },
      {
        "astId": 10537,
        "contract": "contracts/extensions/DAOGovernorDeployableOnceWithoutGovernance.sol:DAOGovernorDeployableOnceWithoutGovernance",
        "label": "_votingPeriod",
        "offset": 0,
        "slot": "1",
        "type": "t_uint256"
      },
      {
        "astId": 10539,
        "contract": "contracts/extensions/DAOGovernorDeployableOnceWithoutGovernance.sol:DAOGovernorDeployableOnceWithoutGovernance",
        "label": "_proposalThreshold",
        "offset": 0,
        "slot": "2",
        "type": "t_uint256"
      },
      {
        "astId": 10684,
        "contract": "contracts/extensions/DAOGovernorDeployableOnceWithoutGovernance.sol:DAOGovernorDeployableOnceWithoutGovernance",
        "label": "_hasDeployed",
        "offset": 0,
        "slot": "3",
        "type": "t_bool"
      }
    ],
    "types": {
      "t_bool": {
        "encoding": "inplace",
        "label": "bool",
        "numberOfBytes": "1"
      },
      "t_uint256": {
        "encoding": "inplace",
        "label": "uint256",
        "numberOfBytes": "32"
      }
    }
  }
}