{
  "address": "0xc2b2e1175017114C0bAf4559362B81C2332f85fD",
  "abi": [
    {
      "inputs": [],
      "stateMutability": "nonpayable",
      "type": "constructor"
    },
    {
      "inputs": [
        {
          "internalType": "address",
          "name": "target",
          "type": "address"
        }
      ],
      "name": "AddressEmptyCode",
      "type": "error"
    },
    {
      "inputs": [
        {
          "internalType": "address",
          "name": "account",
          "type": "address"
        }
      ],
      "name": "AddressInsufficientBalance",
      "type": "error"
    },
    {
      "inputs": [],
      "name": "BeforeFundingStartTime",
      "type": "error"
    },
    {
      "inputs": [],
      "name": "FailedInnerCall",
      "type": "error"
    },
    {
      "inputs": [],
      "name": "InvalidFundingInput",
      "type": "error"
    },
    {
      "inputs": [],
      "name": "InvalidInitialization",
      "type": "error"
    },
    {
      "inputs": [],
      "name": "NotInitializing",
      "type": "error"
    },
    {
      "inputs": [
        {
          "internalType": "address",
          "name": "owner",
          "type": "address"
        }
      ],
      "name": "OwnableInvalidOwner",
      "type": "error"
    },
    {
      "inputs": [
        {
          "internalType": "address",
          "name": "account",
          "type": "address"
        }
      ],
      "name": "OwnableUnauthorizedAccount",
      "type": "error"
    },
    {
      "inputs": [],
      "name": "PastFundingDeadline",
      "type": "error"
    },
    {
      "inputs": [],
      "name": "ReentrancyGuardReentrantCall",
      "type": "error"
    },
    {
      "inputs": [
        {
          "internalType": "address",
          "name": "token",
          "type": "address"
        }
      ],
      "name": "SafeERC20FailedOperation",
      "type": "error"
    },
    {
      "inputs": [],
      "name": "Unauthorized",
      "type": "error"
    },
    {
      "inputs": [],
      "name": "Unimplemented",
      "type": "error"
    },
    {
      "anonymous": false,
      "inputs": [
        {
          "indexed": false,
          "internalType": "address",
          "name": "oldBeneficiary",
          "type": "address"
        },
        {
          "indexed": false,
          "internalType": "address",
          "name": "newBeneficiary",
          "type": "address"
        }
      ],
      "name": "BeneficiaryChanged",
      "type": "event"
    },
    {
      "anonymous": false,
      "inputs": [
        {
          "indexed": false,
          "internalType": "address",
          "name": "asset",
          "type": "address"
        },
        {
          "indexed": false,
          "internalType": "uint256",
          "name": "oldRate",
          "type": "uint256"
        },
        {
          "indexed": false,
          "internalType": "uint256",
          "name": "newRate",
          "type": "uint256"
        }
      ],
      "name": "FlowRateChanged",
      "type": "event"
    },
    {
      "anonymous": false,
      "inputs": [
        {
          "indexed": false,
          "internalType": "address",
          "name": "asset",
          "type": "address"
        },
        {
          "indexed": false,
          "internalType": "uint256",
          "name": "amount",
          "type": "uint256"
        },
        {
          "indexed": false,
          "internalType": "uint256",
          "name": "amountOffered",
          "type": "uint256"
        }
      ],
      "name": "FundAdded",
      "type": "event"
    },
    {
      "anonymous": false,
      "inputs": [
        {
          "indexed": false,
          "internalType": "address",
          "name": "asset",
          "type": "address"
        },
        {
          "indexed": false,
          "internalType": "address",
          "name": "investor",
          "type": "address"
        },
        {
          "indexed": false,
          "internalType": "uint256",
          "name": "amount",
          "type": "uint256"
        }
      ],
      "name": "FundsRefunded",
      "type": "event"
    },
    {
      "anonymous": false,
      "inputs": [
        {
          "indexed": false,
          "internalType": "address",
          "name": "asset",
          "type": "address"
        },
        {
          "indexed": false,
          "internalType": "uint256",
          "name": "amount",
          "type": "uint256"
        }
      ],
      "name": "FundsWithdrawn",
      "type": "event"
    },
    {
      "anonymous": false,
      "inputs": [
        {
          "indexed": false,
          "internalType": "uint64",
          "name": "version",
          "type": "uint64"
        }
      ],
      "name": "Initialized",
      "type": "event"
    },
    {
      "anonymous": false,
      "inputs": [
        {
          "indexed": true,
          "internalType": "address",
          "name": "previousOwner",
          "type": "address"
        },
        {
          "indexed": true,
          "internalType": "address",
          "name": "newOwner",
          "type": "address"
        }
      ],
      "name": "OwnershipTransferred",
      "type": "event"
    },
    {
      "anonymous": false,
      "inputs": [],
      "name": "RefundEnabled",
      "type": "event"
    },
    {
      "inputs": [],
      "name": "beneficiary",
      "outputs": [
        {
          "internalType": "address",
          "name": "",
          "type": "address"
        }
      ],
      "stateMutability": "view",
      "type": "function"
    },
    {
      "inputs": [
        {
          "internalType": "address",
          "name": "asset",
          "type": "address"
        },
        {
          "internalType": "address",
          "name": "investor",
          "type": "address"
        }
      ],
      "name": "calculateAmountRefundable",
      "outputs": [
        {
          "internalType": "uint256",
          "name": "",
          "type": "uint256"
        }
      ],
      "stateMutability": "view",
      "type": "function"
    },
    {
      "inputs": [
        {
          "internalType": "address",
          "name": "asset",
          "type": "address"
        }
      ],
      "name": "checkpoint",
      "outputs": [],
      "stateMutability": "nonpayable",
      "type": "function"
    },
    {
      "inputs": [],
      "name": "dataSource",
      "outputs": [
        {
          "internalType": "contract ICOVaultExchangeRateDataSource",
          "name": "",
          "type": "address"
        }
      ],
      "stateMutability": "view",
      "type": "function"
    },
    {
      "inputs": [],
      "name": "enableRefund",
      "outputs": [],
      "stateMutability": "nonpayable",
      "type": "function"
    },
    {
      "inputs": [],
      "name": "erc20AssetInfo",
      "outputs": [
        {
          "internalType": "uint256",
          "name": "peakBalance",
          "type": "uint256"
        },
        {
          "internalType": "uint256",
          "name": "spentBalance",
          "type": "uint256"
        },
        {
          "internalType": "uint256",
          "name": "flowRate",
          "type": "uint256"
        },
        {
          "internalType": "uint256",
          "name": "lastCheckpoint",
          "type": "uint256"
        },
        {
          "internalType": "uint256",
          "name": "pendingBalanceAtLastCheckpoint",
          "type": "uint256"
        }
      ],
      "stateMutability": "view",
      "type": "function"
    },
    {
      "inputs": [],
      "name": "etherAssetInfo",
      "outputs": [
        {
          "internalType": "uint256",
          "name": "peakBalance",
          "type": "uint256"
        },
        {
          "internalType": "uint256",
          "name": "spentBalance",
          "type": "uint256"
        },
        {
          "internalType": "uint256",
          "name": "flowRate",
          "type": "uint256"
        },
        {
          "internalType": "uint256",
          "name": "lastCheckpoint",
          "type": "uint256"
        },
        {
          "internalType": "uint256",
          "name": "pendingBalanceAtLastCheckpoint",
          "type": "uint256"
        }
      ],
      "stateMutability": "view",
      "type": "function"
    },
    {
      "inputs": [
        {
          "internalType": "address",
          "name": "asset",
          "type": "address"
        },
        {
          "internalType": "uint256",
          "name": "amount",
          "type": "uint256"
        }
      ],
      "name": "fund",
      "outputs": [],
      "stateMutability": "payable",
      "type": "function"
    },
    {
      "inputs": [],
      "name": "fundingAsset",
      "outputs": [
        {
          "internalType": "address",
          "name": "",
          "type": "address"
        }
      ],
      "stateMutability": "view",
      "type": "function"
    },
    {
      "inputs": [],
      "name": "fundingDeadline",
      "outputs": [
        {
          "internalType": "uint256",
          "name": "",
          "type": "uint256"
        }
      ],
      "stateMutability": "view",
      "type": "function"
    },
    {
      "inputs": [],
      "name": "fundingStartTime",
      "outputs": [
        {
          "internalType": "uint256",
          "name": "",
          "type": "uint256"
        }
      ],
      "stateMutability": "view",
      "type": "function"
    },
    {
      "inputs": [
        {
          "internalType": "bytes",
          "name": "data",
          "type": "bytes"
        }
      ],
      "name": "initialize",
      "outputs": [],
      "stateMutability": "nonpayable",
      "type": "function"
    },
    {
      "inputs": [
        {
          "internalType": "address",
          "name": "",
          "type": "address"
        },
        {
          "internalType": "address",
          "name": "",
          "type": "address"
        }
      ],
      "name": "investments",
      "outputs": [
        {
          "internalType": "uint256",
          "name": "",
          "type": "uint256"
        }
      ],
      "stateMutability": "view",
      "type": "function"
    },
    {
      "inputs": [],
      "name": "isRefundEnabled",
      "outputs": [
        {
          "internalType": "bool",
          "name": "",
          "type": "bool"
        }
      ],
      "stateMutability": "view",
      "type": "function"
    },
    {
      "inputs": [],
      "name": "owner",
      "outputs": [
        {
          "internalType": "address",
          "name": "",
          "type": "address"
        }
      ],
      "stateMutability": "view",
      "type": "function"
    },
    {
      "inputs": [],
      "name": "projectToken",
      "outputs": [
        {
          "internalType": "address",
          "name": "",
          "type": "address"
        }
      ],
      "stateMutability": "view",
      "type": "function"
    },
    {
      "inputs": [
        {
          "internalType": "address",
          "name": "asset",
          "type": "address"
        }
      ],
      "name": "refund",
      "outputs": [],
      "stateMutability": "nonpayable",
      "type": "function"
    },
    {
      "inputs": [],
      "name": "renounceOwnership",
      "outputs": [],
      "stateMutability": "nonpayable",
      "type": "function"
    },
    {
      "inputs": [
        {
          "internalType": "address",
          "name": "_beneficiary",
          "type": "address"
        }
      ],
      "name": "setBeneficiary",
      "outputs": [],
      "stateMutability": "nonpayable",
      "type": "function"
    },
    {
      "inputs": [
        {
          "internalType": "address",
          "name": "asset",
          "type": "address"
        },
        {
          "internalType": "uint256",
          "name": "flowRate",
          "type": "uint256"
        }
      ],
      "name": "setRate",
      "outputs": [],
      "stateMutability": "nonpayable",
      "type": "function"
    },
    {
      "inputs": [
        {
          "internalType": "address",
          "name": "newOwner",
          "type": "address"
        }
      ],
      "name": "transferOwnership",
      "outputs": [],
      "stateMutability": "nonpayable",
      "type": "function"
    },
    {
      "inputs": [],
      "name": "version_ethsign",
      "outputs": [
        {
          "internalType": "string",
          "name": "",
          "type": "string"
        }
      ],
      "stateMutability": "pure",
      "type": "function"
    },
    {
      "inputs": [
        {
          "internalType": "address",
          "name": "asset",
          "type": "address"
        }
      ],
      "name": "withdraw",
      "outputs": [],
      "stateMutability": "nonpayable",
      "type": "function"
    }
  ],
  "transactionHash": "0x1e4bb709265ddb1467788a22651a3f4a240dc40e844759e6557722b21ab7e5c3",
  "args": [],
  "numDeployments": 2,
  "solcInputHash": "f1f2e6efa692a0f766dd14a6f82371b9",
  "bytecode": "0x608060405234801561001057600080fd5b5061001961001e565b6100d0565b7ff0c57e16840df040f15088dc2f81fe391c3923bec73e23a9662efc9c229c6a00805468010000000000000000900460ff161561006e5760405163f92ee8a960e01b815260040160405180910390fd5b80546001600160401b03908116146100cd5780546001600160401b0319166001600160401b0390811782556040519081527fc7f505b2f371ae2175ee4913f4499e1f2633a7b5936321eed1cdaeb6115181d29060200160405180910390a15b50565b611631806100df6000396000f3fe6080604052600436106101405760003560e01c8063715018a6116100b6578063977800201161006f57806397780020146103cc578063a972985e14610404578063e78f2e2614610424578063ea6106ae1461044b578063f2fde38b1461046b578063fa89401a1461048b57600080fd5b8063715018a61461030b578063796b23bb146103205780637b1837de146103365780638746475a1461034957806389e423461461037a5780638da5cb5b1461038f57600080fd5b80632bdb7097116101085780632bdb70971461023757806338af3eed14610257578063439fab91146102775780634b60ce771461029757806351cff8d9146102b7578063679100b3146102d757600080fd5b80630945fb6b146101455780630f6007fd146101785780631b076edc146101c75780631c31f710146101ff5780631df9355814610221575b600080fd5b34801561015157600080fd5b50610165610160366004611385565b6104ab565b6040519081526020015b60405180910390f35b34801561018457600080fd5b50600b54600c54600d54600e54600f5461019f949392919085565b604080519586526020860194909452928401919091526060830152608082015260a00161016f565b3480156101d357600080fd5b506002546101e7906001600160a01b031681565b6040516001600160a01b03909116815260200161016f565b34801561020b57600080fd5b5061021f61021a3660046113be565b610554565b005b34801561022d57600080fd5b5061016560035481565b34801561024357600080fd5b5061021f6102523660046113db565b6105c5565b34801561026357600080fd5b506005546101e7906001600160a01b031681565b34801561028357600080fd5b5061021f610292366004611407565b61063a565b3480156102a357600080fd5b506000546101e7906001600160a01b031681565b3480156102c357600080fd5b5061021f6102d23660046113be565b61081e565b3480156102e357600080fd5b506040805180820182526005815264302e302e3160d81b6020820152905161016f919061149d565b34801561031757600080fd5b5061021f610982565b34801561032c57600080fd5b5061016560045481565b61021f6103443660046113db565b610996565b34801561035557600080fd5b5060055461036a90600160a01b900460ff1681565b604051901515815260200161016f565b34801561038657600080fd5b5061021f610d01565b34801561039b57600080fd5b507f9016d09d72d40fdae2fd8ceac6b6234c7706214fd39c1cd1e609a0528c199300546001600160a01b03166101e7565b3480156103d857600080fd5b506101656103e7366004611385565b601060209081526000928352604080842090915290825290205481565b34801561041057600080fd5b5061021f61041f3660046113be565b610d69565b34801561043057600080fd5b50600654600754600854600954600a5461019f949392919085565b34801561045757600080fd5b506001546101e7906001600160a01b031681565b34801561047757600080fd5b5061021f6104863660046113be565b610de9565b34801561049757600080fd5b5061021f6104a63660046113be565b610df5565b6000806104b784610f11565b6040805160a08101825282548082526001840154602080840191825260028601548486015260038601546060850152600490950154608084019081526001600160a01b03808b16600090815260108852868120918b1681529652939094205492519351825192955090939161052c91906114e6565b61053691906114e6565b61054091906114f9565b61054a9190611510565b9150505b92915050565b61055c610f63565b600554604080516001600160a01b03928316815291831660208301527f768099735d1c322a05a5b9d7b76d99682a1833d3f7055e5ede25e0f2eeaa8c6d910160405180910390a1600580546001600160a01b0319166001600160a01b0392909216919091179055565b6105cd610f63565b6105d682610d69565b60006105e183610f11565b6002810154604080516001600160a01b0387168152602081019290925281018490529091507f2b25cfe7908f56686053f81e0c3319f1ae8256f3a672f958ee79f3eb9a02db8e9060600160405180910390a16002015550565b7ff0c57e16840df040f15088dc2f81fe391c3923bec73e23a9662efc9c229c6a008054600160401b810460ff16159067ffffffffffffffff166000811580156106805750825b905060008267ffffffffffffffff16600114801561069d5750303b155b9050811580156106ab575080155b156106c95760405163f92ee8a960e01b815260040160405180910390fd5b845467ffffffffffffffff1916600117855583156106f357845460ff60401b1916600160401b1785555b6000808080806107058b8d018d611532565b600080546001600160a01b03199081166001600160a01b0388811691821784556001805484168983161790556003879055600486815560028054909416918616919091179092556040516309ab24eb60e41b815291820192909252959a509398509196509450925090639ab24eb090602401602060405180830381865afa158015610794573d6000803e3d6000fd5b505050506040513d601f19601f820116820180604052508101906107b89190611591565b506107c1610fbe565b6107ca33610fec565b5050505050831561081557845460ff60401b19168555604051600181527fc7f505b2f371ae2175ee4913f4499e1f2633a7b5936321eed1cdaeb6115181d29060200160405180910390a15b50505050505050565b6005546001600160a01b03163314610848576040516282b42960e81b815260040160405180910390fd5b600061085382610f11565b905061085e82610d69565b6000816004015490508082600101600082825461087b91906115aa565b9091555050600060048301556001600160a01b0383166109215760055460405160009182916001600160a01b039091169084908381818185875af1925050503d80600081146108e6576040519150601f19603f3d011682016040523d82523d6000602084013e6108eb565b606091505b50915091508181906109195760405162461bcd60e51b8152600401610910919061149d565b60405180910390fd5b50505061093b565b60055461093b906001600160a01b03858116911683611027565b604080516001600160a01b0385168152602081018390527feaff4b37086828766ad3268786972c0cd24259d4c87a80f9d3963a3c3d999b0d910160405180910390a1505050565b61098a610f63565b610994600061108b565b565b61099e6110fc565b6003544210156109c1576040516345adf07160e01b815260040160405180910390fd5b6004544211156109e457604051638ea0005160e01b815260040160405180910390fd5b6001600160a01b038216158015906109fc5750600034115b80610a2857506001600160a01b03821615801590610a2857506001546001600160a01b03838116911614155b15610a4657604051636d55c53560e11b815260040160405180910390fd5b6000610a5183610f11565b905060006001600160a01b03841615610b9457610a796001600160a01b038516333086611146565b6001600160a01b038416600090815260106020908152604080832033845290915281208054859290610aac9084906115aa565b9091555050815483908390600090610ac59084906115aa565b9091555050600254604051630727391560e21b81526001600160a01b03868116600483015285921690631c9ce45490602401602060405180830381865afa158015610b14573d6000803e3d6000fd5b505050506040513d601f19601f82011682018060405250810190610b389190611591565b610b4291906114f9565b604080516001600160a01b0387168152602081018690529081018290529091507f0da0bfad31f2a0bd851868e3f093b25ae8a4c1c4a93dea3327b0cbf4d6503f189060600160405180910390a1610cbb565b3415610cbb573360009081527f6e0956cda88cad152e89927e53611735b61a5c762d1428573c6931b0a5efcb01602052604081208054349290610bd89084906115aa565b9091555050815434908390600090610bf19084906115aa565b9091555050600254604051630727391560e21b81526001600160a01b03868116600483015285921690631c9ce45490602401602060405180830381865afa158015610c40573d6000803e3d6000fd5b505050506040513d601f19601f82011682018060405250810190610c649190611591565b610c6e91906114f9565b604080516001600160a01b03871681523460208201529081018290529091507f0da0bfad31f2a0bd851868e3f093b25ae8a4c1c4a93dea3327b0cbf4d6503f189060600160405180910390a15b600054610cd2906001600160a01b03163383611027565b5050610cfd60017f9b779b17422d0df92223018b32b4d1fa46e071723d6817e2486d003becc55f0055565b5050565b610d09610f63565b600454421015610d2b576040516282b42960e81b815260040160405180910390fd5b6005805460ff60a01b1916600160a01b1790556040517fce508ce5e3eb0fc171e7a5659a631d9d896cde4dcd790fac6d90477c241bb62090600090a1565b6000610d7482610f11565b905060008160020154826003015442610d8d91906114e6565b610d9791906114f9565b90506000818360040154610dab91906115aa565b9050600083600101548460000154610dc391906114e6565b4260038601559050808211610dd85781610dda565b805b84600401819055505050505050565b610df281611185565b50565b600554600160a01b900460ff16610e1e576040516282b42960e81b815260040160405180910390fd5b6000610e2a82336104ab565b90506001600160a01b038216610eb0576040516000908190339084908381818185875af1925050503d8060008114610e7e576040519150601f19603f3d011682016040523d82523d6000602084013e610e83565b606091505b5091509150818190610ea85760405162461bcd60e51b8152600401610910919061149d565b505050610ec4565b610ec46001600160a01b0383163383611027565b604080516001600160a01b03841681523360208201529081018290527f3c0bf07453018e75735d524dc68608940318d314acf0b6f69569f251a506ad079060600160405180910390a15050565b60015460009081906001600160a01b0390811690841603610f345750600b61054e565b6001600160a01b038316610f4a5750600661054e565b604051636e12839960e01b815260040160405180910390fd5b33610f957f9016d09d72d40fdae2fd8ceac6b6234c7706214fd39c1cd1e609a0528c199300546001600160a01b031690565b6001600160a01b0316146109945760405163118cdaa760e01b8152336004820152602401610910565b610fc661118d565b60017f9b779b17422d0df92223018b32b4d1fa46e071723d6817e2486d003becc55f0055565b610ff461118d565b6001600160a01b03811661101e57604051631e4fbdf760e01b815260006004820152602401610910565b610df28161108b565b6040516001600160a01b0383811660248301526044820183905261108691859182169063a9059cbb906064015b604051602081830303815290604052915060e01b6020820180516001600160e01b0383818316178352505050506111d6565b505050565b7f9016d09d72d40fdae2fd8ceac6b6234c7706214fd39c1cd1e609a0528c19930080546001600160a01b031981166001600160a01b03848116918217845560405192169182907f8be0079c531659141344cd1fd0a4f28419497f9722a3daafe3b4186f6b6457e090600090a3505050565b7f9b779b17422d0df92223018b32b4d1fa46e071723d6817e2486d003becc55f0080546001190161114057604051633ee5aeb560e01b815260040160405180910390fd5b60029055565b6040516001600160a01b03848116602483015283811660448301526064820183905261117f9186918216906323b872dd90608401611054565b50505050565b610ff4610f63565b7ff0c57e16840df040f15088dc2f81fe391c3923bec73e23a9662efc9c229c6a0054600160401b900460ff1661099457604051631afcd79f60e31b815260040160405180910390fd5b60006111eb6001600160a01b03841683611239565b9050805160001415801561121057508080602001905181019061120e91906115bd565b155b1561108657604051635274afe760e01b81526001600160a01b0384166004820152602401610910565b60606112478383600061124e565b9392505050565b6060814710156112735760405163cd78605960e01b8152306004820152602401610910565b600080856001600160a01b0316848660405161128f91906115df565b60006040518083038185875af1925050503d80600081146112cc576040519150601f19603f3d011682016040523d82523d6000602084013e6112d1565b606091505b50915091506112e18683836112eb565b9695505050505050565b606082611300576112fb82611347565b611247565b815115801561131757506001600160a01b0384163b155b1561134057604051639996b31560e01b81526001600160a01b0385166004820152602401610910565b5080611247565b8051156113575780518082602001fd5b604051630a12f52160e11b815260040160405180910390fd5b6001600160a01b0381168114610df257600080fd5b6000806040838503121561139857600080fd5b82356113a381611370565b915060208301356113b381611370565b809150509250929050565b6000602082840312156113d057600080fd5b813561124781611370565b600080604083850312156113ee57600080fd5b82356113f981611370565b946020939093013593505050565b6000806020838503121561141a57600080fd5b823567ffffffffffffffff8082111561143257600080fd5b818501915085601f83011261144657600080fd5b81358181111561145557600080fd5b86602082850101111561146757600080fd5b60209290920196919550909350505050565b60005b8381101561149457818101518382015260200161147c565b50506000910152565b60208152600082518060208401526114bc816040850160208701611479565b601f01601f19169190910160400192915050565b634e487b7160e01b600052601160045260246000fd5b8181038181111561054e5761054e6114d0565b808202811582820484141761054e5761054e6114d0565b60008261152d57634e487b7160e01b600052601260045260246000fd5b500490565b600080600080600060a0868803121561154a57600080fd5b853561155581611370565b9450602086013561156581611370565b93506040860135925060608601359150608086013561158381611370565b809150509295509295909350565b6000602082840312156115a357600080fd5b5051919050565b8082018082111561054e5761054e6114d0565b6000602082840312156115cf57600080fd5b8151801515811461124757600080fd5b600082516115f1818460208701611479565b919091019291505056fea26469706673582212209b6077f22c0373911f9179cdffd0880418fd43909acb5e45701579454d8b5f2764736f6c63430008140033",
  "devdoc": {
    "errors": {
      "AddressEmptyCode(address)": [
        {
          "details": "There's no code at `target` (it is not a contract)."
        }
      ],
      "AddressInsufficientBalance(address)": [
        {
          "details": "The ETH balance of the account is not enough to perform the operation."
        }
      ],
      "FailedInnerCall()": [
        {
          "details": "A call to an address target failed. The target may have reverted."
        }
      ],
      "InvalidInitialization()": [
        {
          "details": "The contract is already initialized."
        }
      ],
      "NotInitializing()": [
        {
          "details": "The contract is not initializing."
        }
      ],
      "OwnableInvalidOwner(address)": [
        {
          "details": "The owner is not a valid owner account. (eg. `address(0)`)"
        }
      ],
      "OwnableUnauthorizedAccount(address)": [
        {
          "details": "The caller account is not authorized to perform an operation."
        }
      ],
      "ReentrancyGuardReentrantCall()": [
        {
          "details": "Unauthorized reentrant call."
        }
      ],
      "SafeERC20FailedOperation(address)": [
        {
          "details": "An operation with an ERC20 token failed."
        }
      ]
    },
    "events": {
      "Initialized(uint64)": {
        "details": "Triggered when the contract has been initialized or reinitialized."
      }
    },
    "kind": "dev",
    "methods": {
      "owner()": {
        "details": "Returns the address of the current owner."
      },
      "renounceOwnership()": {
        "details": "Leaves the contract without owner. It will not be possible to call `onlyOwner` functions. Can only be called by the current owner. NOTE: Renouncing ownership will leave the contract without an owner, thereby disabling any functionality that is only available to the owner."
      }
    },
    "version": 1
  },
  "userdoc": {
    "kind": "user",
    "methods": {},
    "version": 1
  },
  "storageLayout": {
    "storage": [
      {
        "astId": 13315,
        "contract": "contracts/ICOVault.sol:ICOVault",
        "label": "projectToken",
        "offset": 0,
        "slot": "0",
        "type": "t_address"
      },
      {
        "astId": 13317,
        "contract": "contracts/ICOVault.sol:ICOVault",
        "label": "fundingAsset",
        "offset": 0,
        "slot": "1",
        "type": "t_address"
      },
      {
        "astId": 13320,
        "contract": "contracts/ICOVault.sol:ICOVault",
        "label": "dataSource",
        "offset": 0,
        "slot": "2",
        "type": "t_contract(ICOVaultExchangeRateDataSource)14313"
      },
      {
        "astId": 13322,
        "contract": "contracts/ICOVault.sol:ICOVault",
        "label": "fundingStartTime",
        "offset": 0,
        "slot": "3",
        "type": "t_uint256"
      },
      {
        "astId": 13324,
        "contract": "contracts/ICOVault.sol:ICOVault",
        "label": "fundingDeadline",
        "offset": 0,
        "slot": "4",
        "type": "t_uint256"
      },
      {
        "astId": 13326,
        "contract": "contracts/ICOVault.sol:ICOVault",
        "label": "beneficiary",
        "offset": 0,
        "slot": "5",
        "type": "t_address"
      },
      {
        "astId": 13328,
        "contract": "contracts/ICOVault.sol:ICOVault",
        "label": "isRefundEnabled",
        "offset": 20,
        "slot": "5",
        "type": "t_bool"
      },
      {
        "astId": 13331,
        "contract": "contracts/ICOVault.sol:ICOVault",
        "label": "etherAssetInfo",
        "offset": 0,
        "slot": "6",
        "type": "t_struct(AssetInfo)13301_storage"
      },
      {
        "astId": 13334,
        "contract": "contracts/ICOVault.sol:ICOVault",
        "label": "erc20AssetInfo",
        "offset": 0,
        "slot": "11",
        "type": "t_struct(AssetInfo)13301_storage"
      },
      {
        "astId": 13340,
        "contract": "contracts/ICOVault.sol:ICOVault",
        "label": "investments",
        "offset": 0,
        "slot": "16",
        "type": "t_mapping(t_address,t_mapping(t_address,t_uint256))"
      }
    ],
    "types": {
      "t_address": {
        "encoding": "inplace",
        "label": "address",
        "numberOfBytes": "20"
      },
      "t_bool": {
        "encoding": "inplace",
        "label": "bool",
        "numberOfBytes": "1"
      },
      "t_contract(ICOVaultExchangeRateDataSource)14313": {
        "encoding": "inplace",
        "label": "contract ICOVaultExchangeRateDataSource",
        "numberOfBytes": "20"
      },
      "t_mapping(t_address,t_mapping(t_address,t_uint256))": {
        "encoding": "mapping",
        "key": "t_address",
        "label": "mapping(address => mapping(address => uint256))",
        "numberOfBytes": "32",
        "value": "t_mapping(t_address,t_uint256)"
      },
      "t_mapping(t_address,t_uint256)": {
        "encoding": "mapping",
        "key": "t_address",
        "label": "mapping(address => uint256)",
        "numberOfBytes": "32",
        "value": "t_uint256"
      },
      "t_struct(AssetInfo)13301_storage": {
        "encoding": "inplace",
        "label": "struct AssetInfo",
        "members": [
          {
            "astId": 13292,
            "contract": "contracts/ICOVault.sol:ICOVault",
            "label": "peakBalance",
            "offset": 0,
            "slot": "0",
            "type": "t_uint256"
          },
          {
            "astId": 13294,
            "contract": "contracts/ICOVault.sol:ICOVault",
            "label": "spentBalance",
            "offset": 0,
            "slot": "1",
            "type": "t_uint256"
          },
          {
            "astId": 13296,
            "contract": "contracts/ICOVault.sol:ICOVault",
            "label": "flowRate",
            "offset": 0,
            "slot": "2",
            "type": "t_uint256"
          },
          {
            "astId": 13298,
            "contract": "contracts/ICOVault.sol:ICOVault",
            "label": "lastCheckpoint",
            "offset": 0,
            "slot": "3",
            "type": "t_uint256"
          },
          {
            "astId": 13300,
            "contract": "contracts/ICOVault.sol:ICOVault",
            "label": "pendingBalanceAtLastCheckpoint",
            "offset": 0,
            "slot": "4",
            "type": "t_uint256"
          }
        ],
        "numberOfBytes": "160"
      },
      "t_uint256": {
        "encoding": "inplace",
        "label": "uint256",
        "numberOfBytes": "32"
      }
    }
  }
}