{
  "address": "0xebE6e0a75AB40f6A0Ea884D48AF2b1b085CdE401",
  "abi": [
    {
      "inputs": [
        {
          "internalType": "address",
          "name": "asset",
          "type": "address"
        }
      ],
      "name": "tokensPerFundingUnit",
      "outputs": [
        {
          "internalType": "uint256",
          "name": "",
          "type": "uint256"
        }
      ],
      "stateMutability": "pure",
      "type": "function"
    }
  ],
  "transactionHash": "0xda1986512002760e807656314bed1d7709de82e779ce64fb78774d5a65b30ae7",
  "args": [],
  "numDeployments": 2,
  "solcInputHash": "d5e588129d8da7a6063529dcc9cc67f2",
  "bytecode": "0x608060405234801561001057600080fd5b5060b48061001f6000396000f3fe6080604052348015600f57600080fd5b506004361060285760003560e01c80631c9ce45414602d575b600080fd5b603e60383660046050565b50600190565b60405190815260200160405180910390f35b600060208284031215606157600080fd5b81356001600160a01b0381168114607757600080fd5b939250505056fea2646970667358221220f2ecc81c40d94d35181962982b36c4a557809a1f1e4b39a71021eb0f08b41bfa64736f6c63430008140033",
  "devdoc": {
    "kind": "dev",
    "methods": {},
    "version": 1
  },
  "userdoc": {
    "kind": "user",
    "methods": {},
    "version": 1
  },
  "storageLayout": {
    "storage": [],
    "types": null
  }
}